:100000000C943E000C9453000C9453000C94530039
:100010000C9453000C9453000C9453000C94530014
:100020000C9453000C9453000C9453000C94530004
:100030000C9453000C9453000C9453000C945300F4
:100040000C9453000C9453000C9453000C945300E4
:100050000C9453000C9453000C9453000C945300D4
:100060000C9453000C9453000C9453000C945300C4
:100070000C9453000C9453000C94530011241FBE95
:10008000CFEFD8E0DEBFCDBF11E0A0E0B1E0E4EFFC
:10009000FBE002C005900D92A83CB107D9F70E9481
:1000A000C8000C94F8050C940000559A22E330E047
:1000B000AC01429FC001439F900D529F900D1124AF
:1000C0006AE070E00E9409039B0140E050E0E0E23A
:1000D00060EA7FE008C08BB18E278BB9CB01019716
:1000E000F1F74F5F5F4F42175307ACF3089520E2DB
:1000F0003EE4C9010197F1F7FCCFFFCF20E23EE4D7
:10010000C9010197F1F7FCCF80E091E00E949B02CA
:10011000FFCFCF92DF92EF92FF920F931F93CF9377
:10012000DF93559A5D9890E9C92E91E0D92E0E94EF
:10013000EB02082F112707FD1095EE24FF24000F76
:10014000111F00531F4F16C0CE0DDF1D8881833352
:1001500019F486E990E002C082E390E00E94550025
:1001600088EC90E0F6013197F1F70197D9F7089400
:10017000E11CF11CF801C081D181FE010190002039
:10018000E9F73197EC1BFD0BEE16FF0680F6DCCF8E
:100190000E94D6020E9489000E94B50280E090E091
:1001A00008952F923F924F925F926F927F928F921B
:1001B0009F92AF92BF92CF92DF92EF92FF920F93F6
:1001C0001F93DF93CF93CDB7DEB72E970FB6F8947A
:1001D000DEBF0FBECDBF2098289A82E08C838FEFC0
:1001E00092E09A87898720E030E08E010F5F1F4FF1
:1001F000ADE02A2EA1E03A2EFFE04F2EF1E05F2E77
:10020000E1E1EE2EE1E0FE2E73E1A72E71E0B72EC4
:1002100065E1C62E61E0D62E57E1652E51E0752EC0
:1002200040E2842E4EE4942E18993BC021153105EE
:10023000C1F500D000D0EDB7FEB712830183348240
:1002400023820E943003EDB7FEB7128301835482EC
:1002500043820E943003EDB7FEB712830183F4821C
:10026000E3820E943003EDB7FEB712830183B482AC
:10027000A3820E943003EDB7FEB712830183F4829C
:10028000E3820E943003EDB7FEB712830183D4826C
:10029000C3820E94300321E030E00F900F900F9056
:1002A0000F90189B33C02130310581F500D000D06C
:1002B000EDB7FEB712830183748263820E9430031C
:1002C000EDB7FEB712830183F482E3820E9430030C
:1002D000EDB7FEB712830183B482A3820E9430037C
:1002E000EDB7FEB712830183F482E3820E943003EC
:1002F000EDB7FEB712830183D482C3820E9430031C
:1003000020E030E00F900F900F900F90C401019704
:10031000F1F78ACF0E94F20280E49CE90197F1F79D
:100320000895CF93DF932098289A20E030E0C0E929
:10033000D1E0189909C02115310531F489E191E026
:100340000E948A0121E030E0189B09C0213031056C
:1003500031F480E291E00E948A0120E030E08AE8F6
:1003600092E0FE013197F1F70197D9F7E2CF0895B6
:100370000895429A98B1482F50E0881F8827881F17
:100380008295880F880F807C9A0136952795207278
:100390003070822B9778892B9A013695279520719A
:1003A0003070822B9A013695279528703070822BF9
:1003B00088B900C000C0429800C000C0429A28B16D
:1003C000CA018170907063E0880F991F6A95E1F708
:1003D0002778282BCA0133E0880F991F3A95E1F757
:1003E00080749070282B93E0440F551F9A95E1F785
:1003F000CA0180729070282B40715070242B28B94C
:1004000000C000C0429800C000C00895CF92DF92A3
:10041000EF92FF920F931F9387B1877887B988B1C6
:10042000877888B9429A00C000C046B166B1E6B18B
:1004300006B1429800C000C0429A00C000C0A6B1F8
:10044000E6B0C6B086B1429800C000C027B12867A8
:1004500027B990E0B3E095958795BA95E1F781705B
:1004600050E0F6E055954795FA95E1F75695542FEB
:10047000442757954795842B70E0660F771F60746B
:100480007070862BF0E0EE0FFF1FE072F0708E2B85
:1004900010E0000F111F00711070802BB0E013E00E
:1004A000B695A7951A95E1F7A870B0708A2BFF242E
:1004B000B3E0F694E794BA95E1F794E0E922FF24DB
:1004C0008E29DD24A3E0D694C794AA95E1F792E0A3
:1004D000C922DD248C291F910F91FF90EF90DF90AE
:1004E000CF900895409A419A00C000C00E94060231
:1004F00008954098419A00C000C00E9406020895E5
:100500000E947902881F8827881F08950E94800210
:100510008823E1F708951F93182F0E948602409ABE
:10052000419800C000C0812F0E94B9011F91089519
:100530000E948B020895CF93DF93EC0103C02196B4
:100540000E948B0288818823D1F7DF91CF91089593
:100550001F93182F0E9486024098419800C000C047
:10056000812F0E94B9011F91089587B1886787B9CB
:1005700087B1876087B94098419800C000C0429A0F
:1005800088B18778806188B900C000C0429800C0F7
:1005900000C088E20E94A8028FE00E94A80286E0C4
:1005A0000E94A80281E00E94A802089583E390E0DF
:1005B0009093C5008093C40088E18093C10086E2D7
:1005C0008093C2000895982F8091C00085FFFCCFD2
:1005D0009093C60008958091C00087FFFCCF809162
:1005E000C6000895FC0107C08091C00085FFFCCFC4
:1005F00031969093C60090819923B1F70895982F72
:100600008091C00085FFFCCF9093C60080E090E011
:10061000089597FB092E07260AD077FD04D00CD049
:1006200006D000201AF4709561957F4F0895F6F773
:10063000909581959F4F0895AA1BBB1B51E107C060
:10064000AA1FBB1FA617B70710F0A61BB70B881F62
:10065000991F5A95A9F780959095BC01CD010895F1
:10066000A0E0B0E0E6E3F3E00C94D1059E01275F43
:100670003F4F8D819E816F817885A9010E9444033F
:100680002096E2E00C94ED05ABE0B0E0EAE4F3E0A4
:100690000C94C1053C012B015A01FC011782168202
:1006A000838181FD03C06FEF7FEFC6C19AE0892E81
:1006B0001E010894211C311CF3012381F20123FD4A
:1006C000859123FF81912F01882309F4B2C18532DE
:1006D00039F423FD859123FF81912F01853229F47F
:1006E00090E0B3010E943705E7CF982FFF24EE2456
:1006F0009924FFE1FF15D0F09B3269F09C3228F479
:10070000903259F0933291F40EC09D3249F09033FB
:1007100069F441E024C052E0F52A84E0F82A28C0B8
:1007200098E0F92A25C0E0E1FE2A22C0F7FC29C0A2
:10073000892F80538A3070F4F6FE05C0989C902C67
:100740001124980E15C0E89CE02C1124E80EF0E26C
:10075000FF2A0EC09E3229F4F6FC6BC140E4F42A55
:1007600007C09C3619F450E8F52A02C0983649F4BF
:10077000F20123FD959123FF91912F01992309F017
:10078000B8CF892F8554833018F08052833038F4E5
:1007900044E050E0A40EB51E5FE359830FC09336CA
:1007A00031F0933779F0933509F056C020C0F50148
:1007B0008081898342E050E0A40EB51E610101E012
:1007C00010E012C0F501C080D180F6FC03C06FEFCD
:1007D0007FEF02C0692D70E042E050E0A40EB51E2C
:1007E000C6010E942C058C015FE7F52214C0F501BB
:1007F000C080D180F6FC03C06FEF7FEF02C0692D8F
:1008000070E042E050E0A40EB51EC6010E94210532
:100810008C0150E8F52AF3FE07C01AC080E290E090
:10082000B3010E943705EA948E2D90E0081719074E
:10083000A8F30EC0F601F7FC8591F7FE81916F01D8
:1008400090E0B3010E943705E110EA940150104096
:100850000115110579F7EAC0943611F0993669F55A
:10086000F7FE08C0F501208131814281538184E087
:1008700090E00AC0F501808191819C01442737FDF9
:100880004095542F82E090E0A80EB91E9FE6F92211
:1008900057FF09C050954095309521953F4F4F4FD8
:1008A0005F4FE0E8FE2ACA01B901A1012AE030E069
:1008B0000E946305D82ED21840C0953729F41F2D09
:1008C0001F7E2AE030E01DC01F2D197F9F3661F08A
:1008D000903720F4983509F0ACC00FC0903739F04C
:1008E000983709F0A6C004C028E030E00AC01061C3
:1008F00014FD146020E130E004C014FD166020E116
:1009000032E017FF08C0F501608171818281938117
:1009100044E050E008C0F50180819181BC0180E095
:1009200090E042E050E0A40EB51EA1010E946305D4
:10093000D82ED2188FE7F82EF122F6FE0BC05EEF0C
:10094000F522D91438F4F4FE07C0F2FC05C08FEE8E
:10095000F82202C01D2D01C0192DF4FE0DC0FE01AC
:10096000ED0DF11D8081803319F499EEF92208C054
:100970001F5FF2FE05C003C08F2D867809F01F5F50
:100980000F2DF3FC14C0F0FE0FC01E1510F09D2CAF
:100990000BC09D2C9E0C911A1E2D06C080E290E08B
:1009A000B3010E9437051F5F1E15C0F304C01E155A
:1009B00010F4E11A01C0EE2404FF0FC080E390E0C0
:1009C000B3010E94370502FF1DC001FD03C088E787
:1009D00090E00EC088E590E00BC0802F867891F003
:1009E00001FF02C08BE201C080E2F7FC8DE290E0E3
:1009F000B3010E94370506C080E390E0B3010E9476
:100A000037059A94D914C0F3DA94F101ED0DF11D74
:100A1000808190E0B3010E943705DD20A9F706C070
:100A200080E290E0B3010E943705EA94EE20C1F71E
:100A300043CEF30166817781CB012B96E2E10C94E2
:100A4000DD05FC010590615070400110D8F78095DC
:100A500090958E0F9F1F0895FC016150704001908A
:100A60000110D8F7809590958E0F9F1F08950F93D2
:100A70001F93CF93DF938C01EB018B8181FF1BC010
:100A800082FF0DC02E813F818C819D8128173907FF
:100A900064F4E881F9810193F983E88306C0E8856D
:100AA000F985802F0995892B31F48E819F810196DC
:100AB0009F838E8302C00FEF1FEFC801DF91CF919C
:100AC0001F910F910895FA01AA27283051F1203182
:100AD00081F1E8946F936E7F6E5F7F4F8F4F9F4FD2
:100AE000AF4FB1E03ED0B4E03CD0670F781F891F14
:100AF0009A1FA11D680F791F8A1F911DA11D6A0FE2
:100B0000711D811D911DA11D20D009F468943F9194
:100B10002AE0269F11243019305D3193DEF6CF0193
:100B20000895462F4770405D4193B3E00FD0C9F759
:100B3000F6CF462F4F70405D4A3318F0495D31FDC6
:100B40004052419302D0A9F7EACFB4E0A695979519
:100B5000879577956795BA95C9F7009761057105EF
:100B600008959B01AC010A2E069457954795379539
:100B70002795BA95C9F7620F731F841F951FA01D93
:100B800008952F923F924F925F926F927F928F9231
:100B90009F92AF92BF92CF92DF92EF92FF920F930C
:100BA0001F93CF93DF93CDB7DEB7CA1BDB0B0FB616
:100BB000F894DEBF0FBECDBF09942A8839884888D3
:100BC0005F846E847D848C849B84AA84B984C88469
:100BD000DF80EE80FD800C811B81AA81B981CE0F60
:100BE000D11D0FB6F894DEBF0FBECDBFED01089545
:040BF000F894FFCFA7
:100BF40048656C6C6F20576F726C64210041007003
:100C0400006100730074004C0041706173617400F2
:100C14004C6173617400313300333131310033314D
:100C2400333100333131003100313133310033336A
:100C3400310031313131003131003133333300335C
:100C44003133003133313100333300333100333346
:100C54003300313333310033333133003133310036
:100C6400313131003300313133003131313300312E
:100C740033330033313133003331333300333331E1
:100C84003100260129012E013301370139013E01CA
:100C9400420147014A014F01530158015B015E01C2
:100CA400620167016C0170017001740176017A01BF
:080CB4007F01830188018D011D
:00000001FF
