:100000000C943E000C945B000C945B000C945B0021
:100010000C945B000C9485000C945B000C945B00CA
:100020000C945B000C945B000C945B000C945B00E4
:100030000C9473000C945D000C945B000C946800AD
:100040000C945B000C945B000C945B000C945B00C4
:100050000C945B000C945B000C945B000C945B00B4
:100060000C945B000C945B000C945B000C945B00A4
:100070000C945B000C945B000C945B0011241FBE7D
:10008000CFEFD8E0DEBFCDBF11E0A0E0B1E0EEE5FC
:10009000F8E102C005900D92A631B107D9F711E041
:1000A000A6E1B1E001C01D92A233B107E1F70E94C1
:1000B000E4020C942D0C0C9400001F920F920FB6CA
:1000C0000F9211245C980F900FBE0F901F901895FF
:1000D0001F920F920FB60F9211245C9A0F900FBED1
:1000E0000F901F9018951F920F920FB60F92112428
:1000F0008F939F938BB190E189278BB99F918F91BB
:100100000F900FBE0F901F9018951F920F920FB671
:100110000F9211242F938F939F9318990EC0809163
:10012000880090918900885E934090938900809325
:1001300088008091880090918900199915C080915C
:1001400088009091890088519C4F909389008093FA
:10015000880080918800909189008957904520F00F
:1001600010928900109288009F918F912F910F908B
:100170000FBE0F901F901895549A239A84B18C7FCC
:1001800084B985B1836085B9089580E090EC90933F
:1001900089008093880080E090E8909387008093A6
:1001A000860083E280936F008DE180938100089543
:1001B000CF92DF92EF92FF921F93DF93CF93CDB751
:1001C000DEB72C970FB6F894DEBF0FBECDBF7E0111
:1001D0000894E11CF11CD701E9E0F1E08CE001900A
:1001E0000D928150E1F780E40E9456078DE0C82E01
:1001F000D12CCC0EDD1EF7011081812F0E94B0069C
:10020000812F0E94B006812F0E94B006812F0E948C
:10021000B006812F0E94B006812F0E94B006812F68
:100220000E94B006812F0E94B00682E090E0E80EA6
:10023000F91EEC14FD04F9F62C960FB6F894DEBF07
:100240000FBECDBFCF91DF911F91FF90EF90DF9058
:10025000CF90089582E0809321018DEA9BE09093F6
:100260002701809326010E94830B8EE191E09093F9
:100270002F0180932E0108952F923F924F925F920B
:100280006F927F928F929F92AF92BF92CF92DF92A6
:10029000EF92FF920F931F93DF93CF93CDB7DEB70B
:1002A00028970FB6F894DEBF0FBECDBF2D833E83D7
:1002B0004F835887980140E050E029833A834B836D
:1002C0005C832FE430E040E050E00E94B70B2981CE
:1002D0003A814B815C810E94D60B19012A01609101
:1002E0001A0170911B0180911C0190911D0126162D
:1002F00037064806590608F02BC1C201B10125E0B6
:1003000030E040E050E00E94D60B59016A0135010F
:100310004601822F80580E94560760911A01709101
:100320001B0180911C0190911D0125E030E040E00F
:1003300050E00E94D60BC901DA017C018D01EA145C
:10034000FB040C051D0568F480E00E94B0060894CB
:10035000E11CF11C011D111DEA14FB040C051D0517
:1003600098F3C201B10125E030E040E050E00E9486
:10037000D60B862F0E94B00630E16316710481040B
:10038000910470F480E00E94B0060894611C711C16
:10039000811C911C40E1641671048104910490F366
:1003A00020921A0130921B0140921C0150921D01B3
:1003B0006D817E818F8198852FE430E040E050E0B0
:1003C0000E94B70B29813A814B815C810E94D60B38
:1003D00019012A016091160170911701809118018D
:1003E00090911901261637064806590608F074C080
:1003F000C201B10125E030E040E050E00E94D60BA0
:1004000059016A0135014601822F80540E94560726
:100410006091160170911701809118019091190156
:1004200025E030E040E050E00E94D60BC901DA013F
:100430007C018D01EA14FB040C051D0568F480E0C5
:100440000E94B0060894E11CF11C011D111DEA1464
:10045000FB040C051D0598F3C201B10125E030E055
:1004600040E050E00E94D60B862F0E94B00650E17B
:10047000651671048104910470F480E00E94B00656
:100480000894611C711C811C911C80E16816710428
:100490008104910490F3209216013092170140924A
:1004A00018015092190128960FB6F894DEBF0FBEBE
:1004B000CDBFCF91DF911F910F91FF90EF90DF9013
:1004C000CF90BF90AF909F908F907F906F905F90F4
:1004D0004F903F902F90089525E030E040E050E0AD
:1004E0000E94D60B822F80540E94560760911601FD
:1004F00070911701809118019091190125E030E069
:1005000040E050E00E94D60BC901DA015C016D01A8
:10051000C201B10125E030E040E050E00E94D60B7E
:1005200079018A0137014801AE14BF04C006D10623
:1005300008F092CF85E00E94B0060894A11CB11C7F
:10054000C11CD11CAE14BF04C006D10698F384CFE1
:1005500025E030E040E050E00E94D60B822F80582A
:100560000E94560760911A0170911B0180911C0135
:1005700090911D0125E030E040E050E00E94D60B54
:10058000C901DA015C016D01C201B10125E030E071
:1005900040E050E00E94D60B79018A013701480102
:1005A000AE14BF04C006D10608F0DBCE85E00E9481
:1005B000B0060894A11CB11CC11CD11CAE14BF0410
:1005C000C006D10698F3CDCE2F923F924F925F9204
:1005D0006F927F928F929F92AF92BF92CF92DF9253
:1005E000EF92FF920F931F93DF93CF93CDB7DEB7B8
:1005F0002E970FB6F894DEBF0FBECDBF0E94750ACE
:100600008E010F5F1F4FD801E9E0F1E08CE001900F
:100610000D928150E1F780E40E94560778019DE039
:10062000A92EB12CAC0EBD1EF701D08000E010E069
:100630008D2D0E94B0060F5F1F4F08301105C1F7C6
:1006400022E030E0E20EF31EEA14FB0469F782E0D8
:10065000809321018DEA9BE09093270180932601EE
:100660000E94830B8EE191E090932F0180932E01E5
:1006700080E091E00E94F80B789480E090EC9093F9
:1006800089008093880080E090E8909387008093B1
:10069000860083E280936F008DE180938100549AFD
:1006A000239A84B18C7F84B985B1836085B98091A8
:1006B0006C00816080936C0080916C0082608093FC
:1006C0006C00809168008160809368008091680070
:1006D0008260809368006091840070918500209111
:1006E0008800309189003E872D8780E090E02FE4DC
:1006F00030E040E050E00E94B70B2FEF3FEF40E0CA
:1007000050E00E94D60B19012A0160911A017091E4
:100710001B0180911C0190911D0126163706480689
:10072000590608F008C1C201B10125E030E040E0FF
:1007300050E00E94D60B59016A0135014601822F13
:1007400080580E94560760911A0170911B01809198
:100750001C0190911D0125E030E040E050E00E9436
:10076000D60BC901DA017C018D01EA14FB040C05EA
:100770001D0568F480E00E94B0060894E11CF11C9D
:10078000011D111DEA14FB040C051D0598F3C2019F
:10079000B10125E030E040E050E00E94D60B862F0A
:1007A0000E94B00680E00E94B0060894611C711C93
:1007B000811C911C30E1631671048104910491F74E
:1007C00020921A0130921B0140921C0150921D018F
:1007D000ED85FE85BF0180E090E02FE430E040E051
:1007E00050E00E94B70B2FEF3FEF40E050E00E9437
:1007F000D60B19012A0160911601709117018091A1
:10080000180190911901261637064806590608F076
:1008100056C0C201B10125E030E040E050E00E9446
:10082000D60B59016A0135014601822F80540E947E
:1008300056076091160170911701809118019091EF
:10084000190125E030E040E050E00E94D60BC901DC
:10085000DA017C018D01EA14FB040C051D0568F426
:1008600080E00E94B0060894E11CF11C011D111DDE
:10087000EA14FB040C051D0598F3C201B10125E043
:1008800030E040E050E00E94D60B862F0E94B00678
:1008900080E00E94B0060894611C711C811C911CB0
:1008A000F0E16F1671048104910491F72092160112
:1008B0003092170140921801509219010CCF25E097
:1008C00030E040E050E00E94D60B822F80540E941E
:1008D000560760911601709117018091180190914F
:1008E000190125E030E040E050E00E94D60BC9013C
:1008F000DA015C016D01C201B10125E030E040E0A8
:1009000050E00E94D60B79018A0137014801AE14EC
:10091000BF04C006D10608F0B0CF85E00E94B00643
:100920000894A11CB11CC11CD11CAE14BF04C0068C
:10093000D10698F3A2CF25E030E040E050E00E94DD
:10094000D60B822F80580E94560760911A01709131
:100950001B0180911C0190911D0125E030E040E0D9
:1009600050E00E94D60BC901DA015C016D01C201A1
:10097000B10125E030E040E050E00E94D60B790163
:100980008A0137014801AE14BF04C006D10608F041
:10099000FECE85E00E94B0060894A11CB11CC11CCB
:1009A000D11CAE14BF04C006D10698F3F0CE429A13
:1009B00098B1482F50E0881F8827881F8295880F9C
:1009C000880F807C9A013695279520723070822B93
:1009D0009778892B9A013695279520713070822B54
:1009E0009A013695279528703070822B88B900C0FF
:1009F00000C0429800C000C0429A28B1CA0181706C
:100A00009070880F991F880F991F880F991F27785A
:100A1000282BCA01880F991F880F991F880F991FCB
:100A200080749070282B440F551F440F551F440F9E
:100A3000551FCA0180729070282B40715070242B72
:100A400028B900C000C0429800C000C00895CF92ED
:100A5000DF92EF92FF920F931F9387B1877887B948
:100A600088B1877888B9429A00C000C046B166B1A3
:100A7000E6B106B1429800C000C0429A00C000C072
:100A8000A6B1E6B0C6B086B1429800C000C027B19A
:100A9000286727B990E095958795959587959595C1
:100AA0008795817050E0042E452F000C441F550B94
:100AB000000C441F551F5695542F442757954795B2
:100AC000842B70E0660F771F60747070862BF0E0E7
:100AD000EE0FFF1FE072F0708E2B10E0000F111F61
:100AE00000711070802BB0E0B695A795B695A795CC
:100AF000B695A795A870B0708A2BFF24F694E7945A
:100B0000F694E794F694E79494E0E922FF248E2982
:100B1000DD24D694C794D694C794D694C79492E013
:100B2000C922DD248C291F910F91FF90EF90DF9057
:100B3000CF9008954098419A00C000C087B187784F
:100B400087B988B1877888B9429A00C000C096B149
:100B500086B186B186B1429800C000C0429A00C0FA
:100B600000C086B186B186B186B1429800C000C08F
:100B700087B1886787B9929596959695937090FD01
:100B8000D9CF0895CF92DF92EF92FF920F931F93E8
:100B90004098419A00C000C087B1877887B988B172
:100BA000877888B9429A00C000C046B166B1E6B104
:100BB00006B1429800C000C0429A00C000C0A6B171
:100BC000E6B0C6B086B1429800C000C027B1286721
:100BD00027B990E0959587959595879595958795F3
:100BE000817050E0042E452F000C441F550B000C63
:100BF000441F551F5695542F442757954795842BCE
:100C000070E0660F771F60747070862BF0E0EE0F57
:100C1000FF1FE072F0708E2B10E0000F111F0071AB
:100C20001070802BB0E0B695A795B695A795B695B0
:100C3000A795A870B0708A2BFF24F694E794F694D9
:100C4000E794F694E79494E0E922FF248E29DD24CA
:100C5000D694C794D694C794D694C79492E0C922E8
:100C6000DD248C291F910F91FF90EF90DF90CF90A2
:100C70000895CF92DF92EF92FF920F931F93409AC5
:100C8000419A00C000C087B1877887B988B187785A
:100C900088B9429A00C000C046B166B1E6B106B15B
:100CA000429800C000C0429A00C000C0A6B1E6B0A1
:100CB000C6B086B1429800C000C027B1286727B9E6
:100CC00090E09595879595958795959587958170F1
:100CD00050E0042E452F000C441F550B000C441F00
:100CE000551F5695542F442757954795842B70E0F0
:100CF000660F771F60747070862BF0E0EE0FFF1F99
:100D0000E072F0708E2B10E0000F111F0071107058
:100D1000802BB0E0B695A795B695A795B695A79503
:100D2000A870B0708A2BFF24F694E794F694E794A9
:100D3000F694E79494E0E922FF248E29DD24D694EA
:100D4000C794D694C794D694C79492E0C922DD2460
:100D50008C291F910F91FF90EF90DF90CF90089515
:100D6000382F4098419A00C000C087B1877887B972
:100D700088B1877888B9429A00C000C096B186B120
:100D800086B186B1429800C000C0429A00C000C03F
:100D900086B186B186B186B1429800C000C087B1E5
:100DA000886787B9929596959695937090FDD9CF5F
:100DB000409A419800C000C0429A28B1432F50E0A9
:100DC000331F3327331F3295330F330F307CCA0163
:100DD0009695879580729070382B2778322BCA01B0
:100DE0009695879580719070382BCA019695879556
:100DF00088709070382B38B900C000C0429800C08D
:100E000000C0429A28B1CA0181709070880F991F62
:100E1000880F991F880F991F2778282BCA01880FE0
:100E2000991F880F991F880F991F80749070282B25
:100E3000440F551F440F551F440F551FCA018072A0
:100E40009070282B40715070242B28B900C000C02E
:100E5000429800C000C008954098419A00C000C068
:100E600087B1877887B988B1877888B9429A00C0F6
:100E700000C096B186B186B186B1429800C000C06C
:100E8000429A00C000C086B186B186B186B1429850
:100E900000C000C087B1886787B980E092959695B9
:100EA0009695937090FF089581E00895382F4098AB
:100EB000419A00C000C087B1877887B988B1877828
:100EC00088B9429A00C000C096B186B186B186B199
:100ED000429800C000C0429A00C000C086B186B1EE
:100EE00086B186B1429800C000C087B1886787B9D3
:100EF000929596959695937090FDD9CF409841988C
:100F000000C000C0429A28B1432F50E0331F33275E
:100F1000331F3295330F330F307CCA019695879576
:100F200080729070382B2778322BCA01969587955E
:100F300080719070382BCA01969587958870907053
:100F4000382B38B900C000C0429800C000C0429A97
:100F500028B1CA0181709070880F991F880F991F5E
:100F6000880F991F2778282BCA01880F991F880F8F
:100F7000991F880F991F80749070282B440F551F5C
:100F8000440F551F440F551FCA0180729070282BC3
:100F900040715070242B28B900C000C0429800C096
:100FA00000C00895FC013081332309F47FC03196DD
:100FB0004098419A00C000C087B1877887B988B14E
:100FC000877888B9429A00C000C096B186B186B1D0
:100FD00086B1429800C000C0429A00C000C086B1ED
:100FE00086B186B186B1429800C000C087B18867DB
:100FF00087B9929596959695937090FDD9CF409A22
:10100000419800C000C0429A28B1432F50E0331FDE
:101010003327331F3295330F330F307CCA01969537
:10102000879580729070382B2778322BCA0196955D
:10103000879580719070382BCA0196958795887036
:101040009070382B38B900C000C0429800C000C072
:10105000429A28B1CA0181709070880F991F880F39
:10106000991F880F991F2778282BCA01880F991F6D
:10107000880F991F880F991F80749070282B440F38
:10108000551F440F551F440F551FCA0180729070A1
:10109000282B40715070242B28B900C000C0429802
:1010A00000C000C03081332309F081CF0895382F6C
:1010B0004098419A00C000C087B1877887B988B14D
:1010C000877888B9429A00C000C096B186B186B1CF
:1010D00086B1429800C000C0429A00C000C086B1EC
:1010E00086B186B186B1429800C000C087B18867DA
:1010F00087B9929596959695937090FDD9CF409A21
:10110000419800C000C0429A28B1432F50E0331FDD
:101110003327331F3295330F330F307CCA01969536
:10112000879580729070382B2778322BCA0196955C
:10113000879580719070382BCA0196958795887035
:101140009070382B38B900C000C0429800C000C071
:10115000429A28B1CA0181709070880F991F880F38
:10116000991F880F991F2778282BCA01880F991F6C
:10117000880F991F880F991F80749070282B440F37
:10118000551F440F551F440F551FCA0180729070A0
:10119000282B40715070242B28B900C000C0429801
:1011A00000C000C00895382F30584098419A00C0C0
:1011B00000C087B1877887B988B1877888B9429AA3
:1011C00000C000C096B186B186B186B1429800C019
:1011D00000C0429A00C000C086B186B186B186B117
:1011E000429800C000C087B1886787B992959695EC
:1011F0009695937090FDD9CF4098419800C000C05B
:10120000429A28B1432F50E0331F3327331F3295C2
:10121000330F330F307CCA0196958795807290709A
:10122000382B2778322BCA0196958795807190705C
:10123000382BCA019695879588709070382B38B9ED
:1012400000C000C0429800C000C0429A28B1CA0144
:1012500081709070880F991F880F991F880F991FB0
:101260002778282BCA01880F991F880F991F880F8C
:10127000991F80749070282B440F551F440F551FE1
:10128000440F551FCA0180729070282B4071507016
:10129000242B28B900C000C0429800C000C040986C
:1012A000419A00C000C087B1877887B988B1877834
:1012B00088B9429A00C000C096B186B186B186B1A5
:1012C000429800C000C0429A00C000C086B186B1FA
:1012D00086B186B1429800C000C087B1886787B9DF
:1012E000929596959695937090FDD9CF409A419896
:1012F00000C000C0429A28B1462F50E0661F662702
:10130000661F6295660F660F607CCA019695879589
:1013100080729070682B2778622BCA01969587950A
:1013200080719070682BCA0196958795887090702F
:10133000682B68B900C000C0429800C000C0429A43
:1013400028B1CA0181709070880F991F880F991F6A
:10135000880F991F2778282BCA01880F991F880F9B
:10136000991F880F991F80749070282B440F551F68
:10137000440F551F440F551FCA0180729070282BCF
:1013800040715070242B28B900C000C0429800C0A2
:1013900000C00895FB01382F30684098419A00C082
:1013A00000C087B1877887B988B1877888B9429AB1
:1013B00000C000C096B186B186B186B1429800C027
:1013C00000C0429A00C000C086B186B186B186B125
:1013D000429800C000C087B1886787B992959695FA
:1013E0009695937090FDD9CF4098419800C000C069
:1013F000429A28B1432F50E0331F3327331F3295D1
:10140000330F330F307CCA019695879580729070A8
:10141000382B2778322BCA0196958795807190706A
:10142000382BCA019695879588709070382B38B9FB
:1014300000C000C0429800C000C0429A28B1CA0152
:1014400081709070880F991F880F991F880F991FBE
:101450002778282BCA01880F991F880F991F880F9A
:10146000991F80749070282B440F551F440F551FEF
:10147000440F551FCA0180729070282B4071507024
:10148000242B28B900C000C0429800C000C03081A1
:10149000332351F131964098419A00C000C087B182
:1014A000877887B988B1877888B9429A00C000C028
:1014B00096B186B186B186B1429800C000C0429A0A
:1014C00000C000C086B186B186B186B1429800C026
:1014D00000C087B1886787B9929596959695937065
:1014E00090FDD9CF409A81CF089587B1886787B999
:1014F00087B1876087B94098419800C000C0429A80
:1015000088B18778806188B900C000C0429800C067
:1015100000C04098419A00C000C087B1877887B961
:1015200088B1877888B9429A00C000C096B186B168
:1015300086B186B1429800C000C0429A00C000C087
:1015400086B186B186B186B1429800C000C087B12D
:10155000886787B9929596959695937090FDD9CFA7
:101560004098419800C000C0429A88B18778806155
:1015700088B900C000C0429800C000C0429A88B13B
:101580008778806488B900C000C0429800C000C05D
:101590004098419A00C000C087B1877887B988B168
:1015A000877888B9429A00C000C096B186B186B1EA
:1015B00086B1429800C000C0429A00C000C086B107
:1015C00086B186B186B1429800C000C087B18867F5
:1015D00087B9929596959695937090FDD9CF40983E
:1015E000419800C000C0429A88B1877888B900C08D
:1015F00000C0429800C000C0429A88B187788066D7
:1016000088B900C000C0429800C000C04098419A0C
:1016100000C000C087B1877887B988B1877888B95A
:10162000429A00C000C096B186B186B186B1429898
:1016300000C000C0429A00C000C086B186B186B129
:1016400086B1429800C000C087B1886787B992957B
:1016500096959695937090FDD9CF4098419800C08B
:1016600000C0429A88B1877888B900C000C042980B
:1016700000C000C0429A88B18778806388B900C0F2
:1016800000C0429800C000C04098419A00C000C00D
:1016900087B1877887B988B1877888B9429A00C0BE
:1016A00000C096B186B186B186B1429800C000C034
:1016B000429A00C000C086B186B186B186B1429818
:1016C00000C000C087B1886787B9929596959695B6
:1016D000937090FDD9CF4098419800C000C0429AC5
:1016E00088B1877888B900C000C0429800C000C0A7
:1016F000429A88B18778886088B900C000C0429853
:1017000000C000C008951092C50087E68093C40011
:1017100088E18093C10086E08093C2000895982FED
:101720008091C00085FFFCCF9093C6000895809102
:10173000C00087FFFCCF8091C6000895FC01908116
:10174000992351F031968091C00085FFFCCF909392
:10175000C60090819923B1F70895982F8091C00019
:1017600085FFFCCF9093C60080E090E00895629FD3
:10177000D001739FF001829FE00DF11D649FE00D89
:10178000F11D929FF00D839FF00D749FF00D659FEA
:10179000F00D9927729FB00DE11DF91F639FB00DE9
:1017A000E11DF91FBD01CF0111240895A1E21A2EF8
:1017B000AA1BBB1BFD010DC0AA1FBB1FEE1FFF1FF5
:1017C000A217B307E407F50720F0A21BB30BE40B45
:1017D000F50B661F771F881F991F1A9469F760958C
:1017E0007095809590959B01AC01BD01CF01089546
:1017F0000F931F93CF93DF938C01E0912E01F09113
:101800002F01838181FF21C0C0E0D0E00DC0E091B5
:101810002E01F0912F0120853185BF01F901099535
:10182000892B11F0CFEFDFEFF80181918F01882331
:1018300071F7E0912E01F0912F01208531858AE02A
:10184000BF01F9010995892B11F0CFEFDFEFCE0130
:0E185000DF91CF911F910F910895F894FFCF73
:10185E005553415254206F6B000000100018001CAD
:06186E00001E001F000037
:00000001FF
