:100000000C94DB000C94F8000C94F8000C94F800AD
:100010000C94F8000C94F8000C94F8000C94F80080
:100020000C94F8000C94F8000C94F8000C94F80070
:100030000C94F8000C94F8000C94F8000C94F80060
:100040000C94F8000C94F8000C94F8000C94F80050
:100050000C94F8000C94F8000C94F8000C94F80040
:100060000C94F8000C94F8000C94F8000C94F80030
:100070000C94F8000C94F8000C94F80005A84CCDF2
:10008000B2D44EB93836A9020C50B9918688083CD2
:10009000A6AAAA2ABE000000803F6E616E00696EAB
:1000A0006600202020202020202000594F55204C81
:1000B0004F534500594F552057494E0000407A1084
:1000C000F35A00A0724E18090010A5D4E80000E809
:1000D0007648170000E40B54020000CA9A3B000067
:1000E00000E1F505000080969800000040420F00F6
:1000F0000000A08601000000102700000000E803B7
:10010000000000006400000000000A000000000081
:100110000100000000002C76D888DC674F0823DF40
:10012000C1DFAE59E1B1B796E5E3E453C63AE65113
:10013000997696E8E6C28426EB898C9B62ED407C3A
:100140006FFCEFBC9C9F40F2BAA56FA5F490055AD6
:100150002AF75C936B6CF9676DC11BFCE0E40D47FB
:10016000FEF520E6B500D0ED902E0300943577051E
:100170000080841E080000204E0A000000C80C33D6
:100180003333330F986E12831141EF8D2114893B65
:10019000E65516CFFEE6DB18D1844B381BF77C1DE5
:1001A000901DA4BBE424203284725E228100C9F138
:1001B00024ECA1E53D2711241FBECFEFD8E0DEBF20
:1001C000CDBF11E0A0E0B1E0E6EBF0E302C00590A6
:1001D0000D92A633B107D9F712E0A6E3B1E001C052
:1001E0001D92A435B107E1F70E94B2010C94591891
:1001F0000C940000ECE7F0E0808180648083EAE703
:10020000F0E08081876880830895ECE7F0E09081DA
:100210009E7F908390819D7F908390819B7F908330
:100220009081977F908390819F7E90839081982B7F
:100230009083EAE7F0E0808180648083E081209110
:10024000780030917900C90108959C01220F331F75
:10025000220F331F280F391F442737FD4095542F95
:10026000CA01B9010E94EC1420E030EC4FE754E4DD
:100270000E9451140895AF92BF92CF92DF92EF92F5
:10028000FF920F931F93DF93CF93CDB7DEB76497A1
:100290000FB6F894DEBF0FBECDBF65E2E62E61E07B
:1002A000F62E00E010E06E010894C11CD11C50E055
:1002B000A52E51E0B52ED7014D915C9180E090E0E4
:1002C000B8010E942310802F0E9405010E94250181
:1002D000EDB7FEB738970FB6F894FEBF0FBEEDBF6F
:1002E0003196ADB7BEB71296DC92CE921197B3821B
:1002F000A28264837583868397830E94D717D70170
:10030000EC911196FC91DF010D900020E9F72DB7DB
:100310003EB7285F3F4F0FB6F8943EBF0FBE2DBFCC
:10032000CD018E1B9F0BB801A6010E9423100F5F09
:100330001F4F82E090E0E80EF91E0630110509F02B
:10034000BACF64960FB6F894DEBF0FBECDBFCF9183
:10035000DF911F910F91FF90EF90DF90CF90BF90B2
:10036000AF9008952F923F924F925F926F927F923B
:100370008F929F92AF92BF92CF92DF92EF92FF92B5
:100380000F931F93DF93CF93CDB7DEB72C970FB6A4
:10039000F894DEBF0FBECDBF8FEF87B988B988EE66
:1003A00093E020E931E0F9013197F1F70197D9F7AE
:1003B00081E06CE00E94510A80917C00806480930F
:1003C0007C0080917A00876880937A000E944408BC
:1003D00078940E943B0160914202709143028091A7
:1003E0004402909145020E94BE147B018C016091F1
:1003F00046027091470280914802909149020E9402
:10040000BE149B01AC018E2D622F40E00E944A0574
:1004100060914C0270914D0280914E0290914F027A
:100420000E94BE147B018C016091500270915102B8
:1004300080915202909153020E94BE149B01AC0124
:100440008E2D622F40E00E94DC0683E00E940501B1
:100450000E942501209131013091320140913301F8
:10046000509134010E94E5132AE939E949E95FEB2B
:100470000E944A1488237CF460914C0270914D02D2
:1004800080914E0290914F0220E030E040E85FE31F
:100490000E94E51325C083E00E9405010E9425010A
:1004A000209131013091320140913301509134015A
:1004B0000E94E5132AE939E949E95FE30E94D5156D
:1004C0001816B4F460914C0270914D0280914E0266
:1004D00090914F0220E030E040E85FE30E94E61395
:1004E00060934C0270934D0280934E0290934F02A2
:1004F00060914C0270914D0280914E0290914F029A
:1005000020E030E044EB52E40E944A14882364F473
:1005100080E090E0A4EBB2E480934C0290934D0213
:10052000A0934E02B0934F0260914C0270914D0225
:1005300080914E0290914F0220E030E04FE453E46E
:100540000E94D515181664F480E090E0AFE4B3E49F
:1005500080934C0290934D02A0934E02B0934F02B1
:1005600080914A0290914B02181619068CF480E093
:1005700090E06AE070E044EB50E00E94461080E1B9
:1005800097E2E0E9F1E03197F1F70197D1F712C076
:10059000892B99F080E090E06AE070E04BEA50E04F
:1005A0000E94461080E197E2E0E9F1E03197F1F72F
:1005B0000197D1F70E94440808C080E090E06AE00B
:1005C00070E042EA50E00E94461080914202909111
:1005D0004302A0914402B091450289879A87AB8774
:1005E000BC878091460290914702A0914802B09149
:1005F00049028D839E83AF83B88769857A858B8511
:100600009C8520913A0230913B0240913C025091EE
:100610003D020E94E6133B014C01CB01D4018093C3
:10062000420290934302A0934402B09345026D812D
:100630007E818F81988520913E0230913F024091CA
:100640004002509141020E94E6139B01AC01CB0194
:10065000DA018093460290934702A0934802B09338
:100660004902E0904C02F0904D0200914E02109130
:100670004F02A0905002B0905102C0905202D09010
:100680005302B301C4010E94DE049C0197FD81C0A6
:1006900060903E0270903F02809040029090410234
:1006A00097FA909497F89094B901882777FD8095F0
:1006B000982F0E94EC142BED3FE049E450E40E9497
:1006C000D91520E030E040E05FE30E94D91520E03A
:1006D00030E040E05DE30E94D9152BED3FE049E4B6
:1006E0005FE30E94E5137B018C0180913A029091B7
:1006F0003B02A0913C02B0913D0289839A83AB8377
:10070000BC83B701C8010E944E141B012C01B70124
:10071000C8010E943C165B016C0169817A818B8162
:100720009C81A20191010E94D9157B018C01C40119
:10073000B301A60195010E94D9159B01AC01C80126
:10074000B7010E94E51360933A0270933B028093D5
:100750003C0290933D0269817A818B819C81A60144
:1007600095010E94D9157B018C01C401B301A2013E
:1007700091010E94D9159B01AC01C801B7010E94EB
:10078000E61360933E0270933F0280934002909381
:100790004102609142027091430280914402909123
:1007A00045020E94B9147B018C0160914602709150
:1007B000470280914802909149020E94B9149B011E
:1007C000AC01C701B9010E9431058230910589F160
:1007D0008330910509F457C0019709F05AC0898503
:1007E0009A85AB85BC858093420290934302A09387
:1007F0004402B09345028D819E81AF81B88580937C
:10080000460290934702A0934802B0934902809118
:100810003E0290913F02A0914002B0914102B05837
:1008200080933E0290933F02A0934002B093410216
:1008300030C089859A85AB85BC85809342029093B0
:100840004302A0934402B09345028D819E81AF8103
:10085000B8858093460290934702A0934802B093D4
:10086000490280913A0290913B02A0913C02B091E2
:100870003D02B05880933A0290933B02A0933C0211
:10088000B0933D0206C0AFEFBFEFB0934B02A09311
:100890004A02609142027091430280914402909119
:1008A00045020E94B9147B018C016091460270914F
:1008B000470280914802909149020E94B9149B011D
:1008C000AC01C701B9010E943A07809136029091AC
:1008D0003702892B31F4E1E0F0E0F0934B02E09332
:1008E0004A026091420270914302809144029091C9
:1008F00045020E94BE147B018C01609146027091FA
:10090000470280914802909149020E94BE149B01C7
:10091000AC018E2D622F41E00E944A0560914C028D
:1009200070914D0280914E0290914F020E94BE1430
:100930007B018C01609150027091510280915202B2
:10094000909153020E94BE149B01AC018E2D622F28
:1009500041E00E94DC068AEF90E0E0E9F1E03197A7
:10096000F1F70197D1F735CD0895DC01FA019B012C
:100970002D5F3F4F8281938128173907C4F0635060
:10098000704086819781861797078CF09D012D5FB7
:100990003F4F80819181281739074CF020E0139751
:1009A000848195818A179B071CF021E001C020E01B
:1009B000822F90E0089580E090E008956F927F92FA
:1009C0008F929F92AF92BF92CF92DF92EF92FF925F
:1009D0000F931F935B016C0139014A01A801970134
:1009E0000E94D51588236CF1C801B70120E030E0E2
:1009F00040E052E40E94E6139B01AC01C601B50140
:100A00000E944A141816ECF0C401B30120E030E053
:100A100048EF52E40E94D51518169CF0C401B301AA
:100A200020E030E046EF52E40E944A1487FD09C0FE
:100A3000C601B501A80197010E94E5130E94B914EF
:100A400002C06FEF7FEFCB011F910F91FF90EF90EE
:100A5000DF90CF90BF90AF909F908F907F906F90DE
:100A600008958C35910594F08D3E91057CF46330AA
:100A700071051CF421E030E00BC06C3771051CF4EB
:100A800020E030E005C023E030E002C022E030E0AA
:100A9000C90108955F926F927F928F929F92AF9259
:100AA000BF92CF92DF92EF92FF920F931F93CF935B
:100AB000DF93582E062FC82FD0E0662E77244130C2
:100AC00009F07CC090E070E00E94AE0F4E010894E7
:100AD000811C911CC401602F70E00E94AE0F32E0B7
:100AE000C32ED12CCC0EDD1EC601602F70E00E94FB
:100AF000AE0F5E010894A108B108C501602F70E037
:100B00000E94AE0F2EEFE22E2FEFF22EEC0EFD1E06
:100B1000C701602F70E00E94AE0F83010F5F1F4F6F
:100B2000852D90E0B8010E94AE0FC401B8010E946B
:100B3000AE0FC601B8010E94AE0FC501B8010E94F8
:100B4000AE0FC701B8010E94AE0F830101501040E3
:100B5000852D90E0B8010E94AE0FC401B8010E943B
:100B6000AE0FC601B8010E94AE0FC501B8010E94C8
:100B7000AE0FC701B8010E94AE0F830102501040B2
:100B8000852D90E0B8010E94AE0FC401B8010E940B
:100B9000AE0FC501B8010E94AE0F83010E5F1F4F5B
:100BA000852D90E0B8010E94AE0FC401B8010E94EB
:100BB000AE0FC501B8010E94AE0F7BC090E070E09F
:100BC0000E94D80F4E010894811C911CC401602F13
:100BD00070E00E94D80F92E0C92ED12CCC0EDD1E01
:100BE000C601602F70E00E94D80F5E010894A10832
:100BF000B108C501602F70E00E94D80F8EEFE82E7B
:100C00008FEFF82EEC0EFD1EC701602F70E00E94E2
:100C1000D80F83010F5F1F4F852D90E0B8010E9410
:100C2000D80FC401B8010E94D80FC601B8010E94B4
:100C3000D80FC501B8010E94D80FC701B8010E94A2
:100C4000D80F830101501040852D90E0B8010E941B
:100C5000D80FC401B8010E94D80FC601B8010E9484
:100C6000D80FC501B8010E94D80FC701B8010E9472
:100C7000D80F830102501040852D90E0B8010E94EA
:100C8000D80FC401B8010E94D80FC501B8010E9455
:100C9000D80F83010E5F1F4F852D90E0B8010E9491
:100CA000D80FC401B8010E94D80FC501B8010E9435
:100CB000D80FDF91CF911F910F91FF90EF90DF90B0
:100CC000CF90BF90AF909F908F907F906F905F90EC
:100CD00008959F92AF92BF92CF92DF92EF92FF92D0
:100CE0000F931F93CF93DF93E82EF62E902E62176B
:100CF00001F5C82FD0E000E010E05E01C42EDD2435
:100D000011C081E0981631F4CE016F2D70E00E9481
:100D1000AE0F05C0CE016F2D70E00E94D80F219656
:100D20000F5F1F4FC8018A0D9B1D8C159D054CF34D
:100D300021C08417F9F4C62FD0E000E010E05E0176
:100D4000C22EDD2411C081E0981631F48E2D90E082
:100D5000BE010E94AE0F05C08E2D90E0BE010E9424
:100D6000D80F21960F5F1F4FC8018A0D9B1D8C1550
:100D70009D054CF3DF91CF911F910F91FF90EF9064
:100D8000DF90CF90BF90AF909F9008950F9389E52B
:100D900060E04FEE20E001E00E94690689E560E036
:100DA00049E52EE70E9469068FEE60E04FEE2EE7E0
:100DB0000E9469060F910895DF92EF92FF920F93C0
:100DC0001F93182FF62EE42E482F405E2F2D0E2D48
:100DD0000E946906D12ED394125E2F2D21508D2DA5
:100DE000622F412F0E946906F3948D2D6F2D412FA4
:100DF0002F2D0E9469061F910F91FF90EF90DF90B9
:100E000008959F92AF92BF92CF92DF92EF92FF929E
:100E10000F931F93B82E162F922EC82EDD24C40ECA
:100E2000D11C4C2D212F0E946906E12EFF24E90CD4
:100E3000F11C8B2D612F4B2D2E2D0E9469068C2DC0
:100E4000612F4C2D2E2D0E9469068B2D6E2D4C2D61
:100E50002E2D0E9469061F910F91FF90EF90DF9059
:100E6000CF90BF90AF909F9008950F930E9401077D
:100E70000F9108959F92AF92BF92CF92DF92EF921F
:100E8000FF920F931F93CF93DF935C016B018091CF
:100E90003802909139020296861797071CF421E0D8
:100EA00030E048C0CAE3D1E09924EE24FF2437C0E3
:100EB000088519850115110571F1A701440F551F0A
:100EC000C70163E0880F991F6A95E1F7480F591F22
:100ED000465C5E4FC501B6010E94B504892BD9F06E
:100EE000C801019799878887892B19F099249394D1
:100EF00012C0809136029091370201979093370289
:100F00008093360288816A814091360120913801B0
:100F100000E00E9401070894E11CF11C2A968091D0
:100F2000340290913502E816F90614F221E030E01F
:100F300029193109C901DF91CF911F910F91FF90BC
:100F4000EF90DF90CF90BF90AF909F900895AF92B9
:100F5000BF92DF92EF92FF920F931F93CF93DF9395
:100F600086E190E090933701809336018FE090E026
:100F70009093390180933801109235021092340217
:100F8000C0E0D0E0F4E0AF2EB12C9E01255A122F24
:100F9000809138019091390102969C01C29FC00155
:100FA000C39F900DD29F900D1124E2E0DE2ED80E4B
:100FB000ED2CFF24812F6D2D4091360120913801B9
:100FC00001E00E9401074091340250913502212F27
:100FD00030E0DA01AA0FBB1FCA0163E0880F991F36
:100FE0006A95E1F7A80FB91FA65CBE4F11963C9316
:100FF0002E93FA01EE0FFF1FEE0FFF1FE40FF51FF8
:10100000EE0FFF1FE45CFE4FF182E082809136011B
:1010100090913701280F391F15963C932E93149702
:1010200060913801709139016E0D7F1D17967C9388
:101030006E9316971996BC92AE921897282F2E5F32
:10104000120F4F5F5F4F5093350240933402810F70
:10105000911D8D3E91050CF4ADCF2196C430D10584
:1010600009F093CF7093390260933802509337029E
:1010700040933602DF91CF911F910F91FF90EF9037
:10108000DF90BF90AF9008950E94C6060E94A70708
:1010900010924B0210924A0280E090E0A6E0B3E486
:1010A0008093420290934302A0934402B09345027E
:1010B00080E090E0A0ECB2E4809346029093470277
:1010C000A0934802B093490280E090E0A0E8BFE31B
:1010D00080933A0290933B02A0933C02B0933D026E
:1010E00080933E0290933F02A0934002B09341024E
:1010F00080E090E0A4E1B3E480934C0290934D0231
:10110000A0934E02B0934F0280E090E0ACEFB2E4C7
:101110008093500290935102A0935202B0935302D5
:101120000895982F01C0000017B818B8289A299878
:101130000000179800000000000086B1179A299A55
:101140008370833081F78FEF87B99150906A98B997
:10115000289A2A980000179800000000179A0000AB
:101160002A9A0895982F01C0000017B818B8289A35
:1011700029980000179800000000000086B1179A17
:10118000299A8370833081F78FEF87B998B92898AF
:101190002A980000179800000000179A00002A9A69
:1011A00001C0000017B818B8289A299800001798AD
:1011B00000000000000086B1179A299A83708330DE
:1011C00081F78FEF87B968B928982A980000179897
:1011D00000000000179A00002A9A01C0000017B80A
:1011E00018B8289A299800001798000000000000FD
:1011F00086B1179A299A8370833081F78FEF87B968
:1012000081E288B9289A2A98000017980000000007
:10121000179A00002A9A0895282F01C0000017B8D5
:1012200018B8289A299800001798000000000000BC
:1012300086B1179A299A8370833081F78FEF87B927
:1012400028B928982A980000179800000000179ADB
:1012500000002A9A01C0000017B818B8289A2998E7
:101260000000179800000000000086B1179A299A24
:101270008370833081F78FEF87B998B928982A98BF
:101280000000179800000000179A00002A9A01C079
:10129000000017B818B8289A29980000179800007D
:1012A0000000000086B1179A299A8370833081F775
:1012B0008FEF87B984E288B9289A2A980000179896
:1012C00000000000179A00002A9A089580E090E03C
:1012D0000E940C0901C0000017B818B8289A299874
:1012E0000000179800000000000086B1179A299AA4
:1012F0008370833081F78FEF87B980EB88B9289AA4
:101300002A980000179800000000179A00002A9AF7
:1013100001C0000017B818B8289A2998000017983B
:1013200000000000000086B1179A299A837083306C
:1013300081F720E030E09FEF97B918B828982A98F5
:101340000000179800000000179A00002A9A01C0B8
:10135000000017B818B8289A2998000017980000BC
:101360000000000086B1179A299A83FFF1CF2F5F02
:101370003F4F81E0203E3807F9F601C0000017B862
:1013800018B8289A2998000017980000000000005B
:1013900086B1179A299A8370833081F78FEF87B9C6
:1013A00082EB88B9289A2A9800001798000000005C
:1013B000179A00002A9A80E094E00E940C0901C06C
:1013C000000017B818B8289A29980000179800004C
:1013D0000000000086B1179A299A8370833081F744
:1013E0008FEF87B980EB88B9289A2A980000179860
:1013F00000000000179A00002A9A01C0000017B8E8
:1014000018B8289A299800001798000000000000DA
:1014100086B1179A299A8370833081F720E030E0F3
:101420009FEF97B918B828982A98000017980000DD
:101430000000179A00002A9A01C0000017B818B8D7
:10144000289A29980000179800000000000086B133
:10145000179A299A83FFF1CF2F5F3F4F8FE02030FB
:101460003807F9F601C0000017B818B8289A29986B
:101470000000179800000000000086B1179A299A12
:101480008370833081F78FEF87B982EB88B9289A10
:101490002A980000179800000000179A00002A9A66
:1014A0000895282F18B817B885B1866085B9179A9E
:1014B0002898169884B1876084B981B1806C81B90D
:1014C000169880E49CE9FC013197F1F7169A019790
:1014D000F1F701C0000017B818B8289A2998000041
:1014E000179800000000000086B1179A299A8370AF
:1014F000833081F78FEF87B918B828982A980000B1
:10150000179800000000179A00002A9A01C00000F6
:1015100017B818B8289A29980000179800000000FA
:10152000000086B1179A299A8370833081F78FEF74
:1015300087B984E088B928982A9800001798000095
:101540000000179A00002A9A01C0000017B818B8C6
:10155000289A29980000179800000000000086B122
:10156000179A299A8370833081F78FEF87B982E4C5
:1015700088B9289A2A980000179800000000179A46
:1015800000002A9A01C0000017B818B8289A2998B4
:101590000000179800000000000086B1179A299AF1
:1015A0008370833081F78FEF87B98EE188B92898EF
:1015B0002A980000179800000000179A00002A9A45
:1015C00001C0000017B818B8289A29980000179889
:1015D00000000000000086B1179A299A83708330BA
:1015E00081F78FEF87B918B828982A9800001798C4
:1015F00000000000179A00002A9A01C0000017B8E6
:1016000018B8289A299800001798000000000000D8
:1016100086B1179A299A8370833081F78FEF87B943
:1016200083E488B9289A2A980000179800000000DF
:10163000179A00002A9A01C0000017B818B8289A13
:1016400029980000179800000000000086B1179A42
:10165000299A8370833081F78FEF87B918B828985B
:101660002A980000179800000000179A00002A9A94
:1016700001C0000017B818B8289A299800001798D8
:1016800000000000000086B1179A299A8370833009
:1016900081F78FEF87B918B828982A980000179813
:1016A00000000000179A00002A9A01C0000017B835
:1016B00018B8289A29980000179800000000000028
:1016C00086B1179A299A8370833081F78FEF87B993
:1016D00080E488B9289A2A98000017980000000032
:1016E000179A00002A9A01C0000017B818B8289A63
:1016F00029980000179800000000000086B1179A92
:10170000299A8370833081F78FEF87B98EE188B98A
:1017100028982A980000179800000000179A0000E7
:101720002A9A01C0000017B818B8289A2998000012
:10173000179800000000000086B1179A299A83705C
:10174000833081F78FEF87B918B828982A9800005E
:10175000179800000000179A00002A9A01C00000A4
:1017600017B818B8289A29980000179800000000A8
:10177000000086B1179A299A8370833081F78FEF22
:1017800087B981E488B9289A2A9800001798000040
:101790000000179A00002A9A01C0000017B818B874
:1017A000289A29980000179800000000000086B1D0
:1017B000179A299A8370833081F78FEF87B9206851
:1017C00028B9289A2A980000179800000000179A54
:1017D00000002A9A01C0000017B818B8289A299862
:1017E0000000179800000000000086B1179A299A9F
:1017F0008370833081F78FEF87B9606968B9289A61
:101800002A980000179800000000179A00002A9AF2
:1018100001C0000017B818B8289A29980000179836
:1018200000000000000086B1179A299A8370833067
:1018300081F78FEF87B983E088B928982A9800004C
:10184000179800000000179A00002A9A01C00000B3
:1018500017B818B8289A29980000179800000000B7
:10186000000086B1179A299A8370833081F78FEF31
:1018700087B918B828982A98000017980000000027
:10188000179A00002A9A01C0000017B818B8289AC1
:1018900029980000179800000000000086B1179AF0
:1018A000299A8370833081F78FEF87B982E288B9F4
:1018B000289A2A980000179800000000179A000044
:1018C0002A9A0E94660980E090E00E940C0980E05C
:1018D00060E00E94B2080895982F01C0000017B878
:1018E00018B8289A299800001798000000000000F6
:1018F00086B1179A299A8370833081F78FEF87B961
:1019000098B928982A980000179800000000179AA4
:1019100000002A9A01C0000017B818B8289A299820
:101920000000179800000000000086B1179A299A5D
:101930008370833081F78FEF87B980EC88B9289A5C
:101940002A980000179800000000179A00002A9AB1
:101950000895FC0101C0000017B818B8289A29980A
:101960000000179800000000000086B1179A299A1D
:101970008370833081F78FEF87B980EB88B9289A1D
:101980002A980000179800000000179A00002A9A71
:1019900001C0000017B818B8289A299800001798B5
:1019A00000000000000086B1179A299A83708330E6
:1019B00081F720C0808197B988B928982A980000BB
:1019C000179800000000179A00002A9A01C0000032
:1019D00017B818B8289A2998000017980000000036
:1019E000000086B1179A299A83FFF1CF3196615092
:1019F000704001C09FEF61157105E1F601C0000064
:101A000017B818B8289A2998000017980000000005
:101A1000000086B1179A299A8370833081F78FEF7F
:101A200087B982EB88B9289A2A9800001798000095
:101A30000000179A00002A9A0895282F01C000007C
:101A400017B818B8289A29980000179800000000C5
:101A5000000086B1179A299A8370833081F78FEF3F
:101A600087B980EB88B9289A2A9800001798000057
:101A70000000179A00002A9A01C0000017B818B891
:101A8000289A29980000179800000000000086B1ED
:101A9000179A299A8370833081F71EC097B928B9A5
:101AA00028982A980000179800000000179A000054
:101AB0002A9A01C0000017B818B8289A299800007F
:101AC000179800000000000086B1179A299A83FF3A
:101AD000F1CF6150704001C09FEF61157105F1F6C3
:101AE00001C0000017B818B8289A29980000179864
:101AF00000000000000086B1179A299A8370833095
:101B000081F78FEF87B982EB88B9289A2A9800006D
:101B1000179800000000179A00002A9A0895FC0107
:101B200001C0000017B818B8289A29980000179823
:101B300000000000000086B1179A299A8370833054
:101B400081F78FEF87B980EB88B9289A2A9800002F
:101B5000179800000000179A00002A9A01C00000A0
:101B600017B818B8289A29980000179800000000A4
:101B7000000086B1179A299A8370833081F720C0BC
:101B8000849197B988B928982A980000179800007E
:101B90000000179A00002A9A01C0000017B818B870
:101BA000289A29980000179800000000000086B1CC
:101BB000179A299A83FFF1CF31966150704001C086
:101BC0009FEF61157105E1F601C0000017B818B864
:101BD000289A29980000179800000000000086B19C
:101BE000179A299A8370833081F78FEF87B982EB38
:101BF00088B9289A2A980000179800000000179AC0
:101C000000002A9A0895982F01C0000017B818B84C
:101C1000289A29980000179800000000000086B15B
:101C2000179A299A8370833081F78FEF87B9986F5D
:101C300098B9289A2A980000179800000000179A6F
:101C400000002A9A0895982F01C0000017B818B80C
:101C5000289A29980000179800000000000086B11B
:101C6000179A299A8370833081F78FEF87B997701D
:101C7000906F98B9289A2A980000179800000000E1
:101C8000179A00002A9A0895982F87FD03C0905252
:101C900001C0000017B818B8289A299800001798B2
:101CA00000000000000086B1179A299A83708330E3
:101CB00081F78FEF87B998B928982A98000017986C
:101CC00000000000179A00002A9A01C0000017B80F
:101CD00018B8289A29980000179800000000000002
:101CE00086B1179A299A8370833081F78FEF87B96D
:101CF00080EC88B9289A2A98000017980000000004
:101D0000179A00002A9A0895FC0101C0000017B834
:101D100018B8289A299800001798000000000000C1
:101D200086B1179A299A8370833081F78FEF87B92C
:101D300080EB88B9289A2A980000179800000000C4
:101D4000179A00002A9A01C0000017B818B8289AFC
:101D500029980000179800000000000086B1179A2B
:101D6000299A8370833081F71EC087FF805297B90C
:101D700088B928982A980000179800000000179A40
:101D800000002A9A01C0000017B818B8289A2998AC
:101D90000000179800000000000086B1179A299AE9
:101DA00083FD02C0F0CF9FEF81918823F1F601C03F
:101DB000000017B818B8289A299800001798000052
:101DC0000000000086B1179A299A8370833081F74A
:101DD0008FEF87B982EB88B9289A2A980000179864
:101DE00000000000179A00002A9A08959C0101C083
:101DF000000017B818B8289A299800001798000012
:101E00000000000086B1179A299A8370833081F709
:101E10008FEF87B980EB88B9289A2A980000179825
:101E200000000000179A00002A9A01C0000017B8AD
:101E300018B8289A299800001798000000000000A0
:101E400086B1179A299A8370833081F71EC087FF65
:101E5000805297B988B928982A98000017980000EE
:101E60000000179A00002A9A01C0000017B818B89D
:101E7000289A29980000179800000000000086B1F9
:101E8000179A299A83FD02C0F0CF9FEFF9012F5FC7
:101E90003F4F84918823D9F601C0000017B818B8C5
:101EA000289A29980000179800000000000086B1C9
:101EB000179A299A8370833081F78FEF87B982EB65
:101EC00088B9289A2A980000179800000000179AED
:101ED00000002A9A08951F93162F0E940C09812F43
:101EE0000E946C0C1F910895EF92FF920F931F9325
:101EF0008B017A010E940C09C801B7010E94A90C4C
:101F00001F910F91FF90EF900895FF920F931F93F1
:101F1000F62E8A010E940C098F2DB8010E941D0D1A
:101F20001F910F91FF900895EF92FF920F931F93CF
:101F30008B017A010E940C09C801B7010E948F0D24
:101F40001F910F91FF90EF9008951F93162F0E94FD
:101F50000C09812F0E94030E1F9108950F931F9368
:101F60008C01E3E096958795EA95E1F780509C4FC8
:101F70009B01AB0175E0440F551F7A95E1F7220FE5
:101F8000331F421B530B840F951F0E940C090095B1
:101F9000802F87700E94030E1F910F9108951F9349
:101FA000162F0E940C09812F0E94230E1F91089565
:101FB0000F931F938C01B3E096958795BA95E1F73F
:101FC00080509C4F9B01AB01A5E0440F551FAA9583
:101FD000E1F7220F331F421B530B840F951F0E9402
:101FE0000C090095802F87700E94230E1F910F917E
:101FF00008951F93162F0E940C09812F0E94440EF2
:102000001F9108951F93142F9B01AB0175E0440F9E
:10201000551F7A95E1F7220F331F421B530B840F94
:10202000951F0E940C09812F0E94440E1F91089554
:102030000F931F938B010E940C09C8010E94840E0C
:102040001F910F9108950F931F938A019B01AB017C
:10205000F5E0440F551FFA95E1F7220F331F421B9D
:10206000530B840F951F0E940C09C8010E94840E17
:102070001F910F9108950F931F938B010E940C09DC
:10208000C8010E94F60E1F910F9108950F931F93A0
:102090008A019B01AB01B5E0440F551FBA95E1F7EA
:1020A000220F331F421B530B840F951F0E940C09F4
:1020B000C8010E94F60E1F910F910895A1E1B0E0B2
:1020C000E4E6F0E10C9486163C017F876E876A0196
:1020D000FC0117821682838181FD03C06FEF7FEFC1
:1020E0006FC39E012F5F3F4F398B288BF3012381F4
:1020F000EE85FF8523FD859123FF8191FF87EE8784
:10210000882309F45AC3853251F4EE85FF8523FDF7
:10211000859123FF8191FF87EE87853229F490E036
:10212000B3010E94AB17E2CF982F10E088249924C6
:102130001032B0F49B3269F09C3228F4903251F0A6
:10214000933271F40BC09D3239F0903349F4116031
:1021500028C01260146025C0186023C0106121C01F
:1021600017FD2AC0892F80538A3078F416FF06C0E5
:10217000FAE09F9E902C1124980E13C03AE0839EA3
:10218000802C1124880E10620CC09E3221F416FDA2
:1021900014C3106406C09C3611F4106802C098364F
:1021A00059F4EE85FF8523FD959123FF9191FF87DB
:1021B000EE87992309F0BCCF892F8554833020F412
:1021C000812F8061905E07C0892F8556833008F08B
:1021D0009FC1812F8F7E86FD02C076E0972E6FE330
:1021E000F62EF822953619F4F0E4FF2A07C0963649
:1021F00019F420E8F22A02C091109A94F7FE0AC05E
:102200003BE3391518F45CE3B52E02C0B92CB39446
:1022100027E009C047E0491520F4BB2447E0942E8D
:10222000F7CF292DBB24C60104969D878C87F60124
:102230006081718182819381AE014F5F5F4F0B2D71
:102240000E94BD166C010981202E332400FF04C0BA
:1022500003FD02C01DE209C0F1FE02C01BE205C081
:10226000F2FC02C010E001C010E2C1018C7090705D
:10227000892BB9F1112311F483E001C084E08815A2
:1022800010F088240AC0881AF3FC07C080E290E0AE
:10229000B3010E94AB178A94C9F7112329F0812F4B
:1022A00090E0B3010E94AB1723FE03C00AE910E0DF
:1022B0000EC00EE910E00BC0E114F10409F08052E9
:1022C00090E0B3010E94AB170F5F1F4F05C0EF2CCA
:1022D000FF24F0E1EF22FF24F8018491882361F7C5
:1022E00014C1F7FE12C0BC0C24FE04C08A818133E5
:1022F00009F4BA941B141CF0BB24B3942DC0F8E06D
:10230000FB1550F538E0B32E27C0F6FC25C0892D0B
:1023100090E08C159D054CF02CEFC2162FEFD206E5
:1023200024F030E8F32A01C09A94992049F0E2E0C1
:10233000F0E0EC0FFD1FE90DF11D80818033A1F36A
:10234000F7FE0AC0B92CB394892D90E0C816D906BF
:1023500014F0992401C09C18F7FC03C025E030E07C
:1023600009C01C141D041CF021E030E003C09601DC
:102370002F5F3F4F112311F02F5F3F4F992029F01E
:10238000892D90E00196280F391F882D90E028179D
:10239000390714F0882401C0821A4F2C5524C20139
:1023A00089709070892B39F008C080E290E0B30109
:1023B0000E94AB178A948820C1F7112329F0812F3E
:1023C00090E0B3010E94AB1743FE07C008C080E352
:1023D00090E0B3010E94AB178A948820C1F7F7FE02
:1023E00046C08601D7FE02C000E010E076010894E6
:1023F000E11CF11CE01AF10A41E050E04C0F5D1FB6
:10240000E40EF51E26014B185108892D90E0AA24F0
:10241000BB24A81AB90A5FEF0F3F150729F48EE213
:1024200090E0B3010E94AB17C016D10634F04016FD
:1024300051061CF4F701808101C080E30150104077
:102440000894E11CF11C0A151B052CF090E0B30167
:102450000E94AB17E0CF0C151D0539F49A81963315
:1024600018F4953311F424FE81E390E04BC08A8187
:10247000813309F00F7E90E0B3010E94AB179920E1
:10248000A1F08EE290E0B3010E94AB1712E0E1E010
:10249000F0E0EC0FFD1FE10FF11D1F5F808190E068
:1024A000B3010E94AB179A9491F744FC03C085E6F0
:1024B00090E002C085E490E0B3010E94AB17D7FC26
:1024C00005C0C114D10441F404FF06C0D094C194E6
:1024D000D108D3948DE201C08BE290E0B3010E9459
:1024E000AB1780E305C08F5F26EF3FEFC20ED31E10
:1024F0003AE0C316D104BCF790E0B3010E94AB17D9
:10250000C601C096B3010E94AB17CC84DD8452C1D2
:10251000933631F0933799F0933509F059C023C0C1
:10252000F601808189835E010894A11CB11C22E020
:1025300030E0C20ED31E21E0E22EF12C12C0F601D3
:10254000A080B18016FD03C06FEF7FEF02C0692D40
:1025500070E022E030E0C20ED31EC5010E94A01739
:102560007C011F7713C0F601A080B18016FD03C067
:102570006FEF7FEF02C0692D70E022E030E0C20E05
:10258000D31EC5010E9495177C01106813FF07C078
:102590001BC080E290E0B3010E94AB178A94882DA3
:1025A00090E0E816F906A8F30FC0F50117FD859134
:1025B00017FF81915F0190E0B3010E94AB1781107A
:1025C0008A940894E108F108E114F10471F7F2C06B
:1025D000943611F0993689F517FF08C0F60120816D
:1025E00031814281538184E090E00AC0F60180810C
:1025F00091819C01442737FD4095542F82E090E063
:10260000C80ED91E9FE6F92EF12257FF09C050953A
:102610004095309521953F4F4F4F5F4F90E8F92AF5
:10262000CA01B901AE014F5F5F4F2AE030E00E945E
:10263000FB17E82EE889EE1A41C0953721F41F7E7A
:102640002AE030E01CC0197F9F3661F0903720F4FB
:10265000983509F0B2C00FC0903739F0983709F0BB
:10266000ACC004C028E030E00AC0106114FD146062
:1026700020E130E004C014FD166020E132E017FFD5
:1026800008C0F601608171818281938144E050E04D
:1026900008C0F60180819181BC0180E090E042E0B9
:1026A00050E0C40ED51EAE014F5F5F4F0E94FB1776
:1026B000E82E5889E51A8FE7F82EF122F6FE0BC0B6
:1026C0008EEFF822E91438F4F4FE07C0F2FC05C0DE
:1026D0009FEEF92202C01E2D01C0192DF4FE0DC07F
:1026E000FE01EE0DF11D8081803319F4E9EEFE222A
:1026F00008C01F5FF2FE05C003C08F2D867809F069
:102700001F5F0F2DF3FC14C0F0FE0FC0181510F062
:102710009E2C0BC09E2C980C911A182D06C080E29E
:1027200090E0B3010E94AB171F5F1815C0F304C0FF
:10273000181510F4811A01C0882404FF0FC080E32B
:1027400090E0B3010E94AB1702FF1DC001FD03C062
:1027500088E790E00EC088E590E00BC0802F867877
:1027600091F001FF02C08BE201C080E2F7FC8DE234
:1027700090E0B3010E94AB1706C080E390E0B30184
:102780000E94AB179A94E914C0F3EA94E1E0F0E0F8
:10279000EC0FFD1FEE0DF11D808190E0B3010E9452
:1027A000AB17EE2091F706C080E290E0B3010E94E3
:1027B000AB178A948820C1F799CCF30166817781A1
:1027C000CB016196E2E10C94A2165058BB27AA27D0
:1027D0000ED0A0C169D130F06ED120F031F49F3F0E
:1027E00011F41EF45EC10EF4E095E7FB54C1E92F2D
:1027F000B3D180F3BA17620773078407950718F0FF
:1028000071F49EF5CBC10EF4E0950B2EBA2FA02DDE
:102810000B01B90190010C01CA01A0011124FF278D
:10282000591B99F0593F50F4503E68F11A16F04088
:10283000A22F232F342F4427585FF3CF4695379587
:102840002795A795F0405395C9F77EF41F16BA0B4C
:10285000620B730B840BBAF09150A1F0FF0FBB1FFA
:10286000661F771F881FC2F70EC0BA0F621F731F43
:10287000841F48F4879577956795B795F7959E3FA0
:1028800008F0B3CF9395880F08F09927EE0F97952E
:1028900087950895DCD008F481E0089514D1E3957C
:1028A0004AC10CD037C107D140F0FED030F021F43E
:1028B0005F3F19F0F0C0511172C1F3C04DD198F3D0
:1028C0009923C9F35523B1F3951B550BBB27AA27B1
:1028D00062177307840738F09F5F5F4F220F331F23
:1028E000441FAA1FA9F333D00E2E3AF0E0E830D0EF
:1028F00091505040E695001CCAF729D0FE2F27D0F2
:10290000660F771F881FBB1F261737074807AB07BF
:10291000B0E809F0BB0B802DBF01FF2793585F4F34
:102920002AF09E3F510568F0B6C039C15F3FECF315
:10293000983EDCF3869577956795B795F7959F5FF9
:10294000C9F7880F911D9695879597F90895E1E04D
:10295000660F771F881FBB1F621773078407BA07AC
:1029600020F0621B730B840BBA0BEE1F88F7E09507
:10297000089504D06894B11112C10895F5D088F07B
:102980009F5790F0B92F9927B751A0F0D1F0660F5B
:10299000771F881F991F1AF0BA95C9F712C0B13076
:1029A00081F0FCD0B1E00895F9C0672F782F882717
:1029B000B85F39F0B93FCCF3869577956795B395B5
:1029C000D9F73EF490958095709561957F4F8F4F24
:1029D0009F4F0895E89409C097FB3EF49095809529
:1029E000709561957F4F8F4F9F4F9923A9F0F92FD5
:1029F00096E9BB279395F695879577956795B79553
:102A0000F111F8CFFAF4BB0F11F460FF1BC06F5F38
:102A10007F4F8F4F9F4F16C0882311F096E911C04A
:102A2000772321F09EE8872F762F05C0662371F06B
:102A300096E8862F70E060E02AF09A95660F771F7F
:102A4000881FDAF7880F9695879597F90895990F5B
:102A50000008550FAA0BE0E8FEEF16161706E80768
:102A6000F907C0F012161306E407F50798F0621B89
:102A7000730B840B950B39F40A2661F0232B242B5E
:102A8000252B21F408950A2609F4A140A6958FEF7D
:102A9000811D811D089597F99F6780E870E060E0CF
:102AA00008959FEF80EC089500240A9416161706E7
:102AB00018060906089500240A941216130614062F
:102AC00005060895EECF50D0E8F3E894E0E0BB2788
:102AD0009F57F0F02AED3FE049EC06C0EE0FBB0F28
:102AE000661F771F881F28F0B23A620773078407B2
:102AF00028F0B25A620B730B840BE3959A9572F728
:102B0000803830F49A95BB0F661F771F881FD2F765
:102B10009048BAC0092E0394000C11F4882352F097
:102B2000BB0F40F4BF2B11F460FF04C06F5F7F4FF9
:102B30008F4F9F4F0895EF93E0FF06C0A2EA2AED62
:102B40003FE049EC5FEB53DEE5DF0F90039401FCBF
:102B50009058ECE7F0E0A4C057FD9058440F551F83
:102B600059F05F3F71F04795880F97FB991F61F00F
:102B70009F3F79F087950895121613061406551F86
:102B8000F2CF4695F1DF08C0161617061806991FF2
:102B9000F1CF86957105610508940895E894BB27E7
:102BA00066277727CB0197F9089551DF08F48FEF57
:102BB00008950BD0AFCF78DF28F07DDF18F0952394
:102BC00009F069CF6ECF1124EACFC6DFA0F3959F3D
:102BD000D1F3950F50E0551F629FF001729FBB2704
:102BE000F00DB11D639FAA27F00DB11DAA1F649FB0
:102BF0006627B00DA11D661F829F2227B00DA11D63
:102C0000621F739FB00DA11D621F839FA00D611DE8
:102C1000221F749F3327A00D611D231F849F600D09
:102C2000211D822F762F6A2F11249F5750408AF042
:102C3000E1F088234AF0EE0FFF1FBB1F661F771FCE
:102C4000881F91505040A9F79E3F510570F023CF47
:102C5000A6CF5F3FECF3983EDCF3869577956795BA
:102C6000B795F795E7959F5FC1F7FE2B880F911DEC
:102C70009695879597F908959F9325DF0F9007FC08
:102C8000EE5F59CF9F3F31F0915020F487957795B3
:102C90006795B795880F911D9695879597F9089533
:102CA0009F938F937F936F93FF93EF939B01AC015F
:102CB00080DFEF91FF9105D02F913F914F915F9170
:102CC00078CFDF93CF931F930F93FF92EF92DF9212
:102CD0007B018C01689405C0DA2EEF0176DFFE01DE
:102CE000E894A5912591359145915591AEF3EF0169
:102CF0007EDDFE019701A801DA9479F7DF90EF906D
:102D0000FF900F911F91CF91DF9108952F923F92E5
:102D10004F925F926F927F928F929F92AF92BF92EB
:102D2000CF92DF92EF92FF920F931F93CF93DF9397
:102D3000CDB7DEB7CA1BDB0B0FB6F894DEBF0FBEF4
:102D4000CDBF09942A88398848885F846E847D8441
:102D50008C849B84AA84B984C884DF80EE80FD8043
:102D60000C811B81AA81B981CE0FD11D0FB6F894B9
:102D7000DEBF0FBECDBFED010895283008F027E07B
:102D80003327DA01990F311D87FD916000966105A7
:102D9000710539F432602E5F3D9330E32A95E1F7F7
:102DA00008959F3F30F080387105610509F03C5F60
:102DB0003C5F3D93913008F08068911DDF93CF9385
:102DC0001F930F93FF92EF92192F987F9695E92FFB
:102DD00096959695E90FFF27EA5EFE4F99273327D0
:102DE000EE24FF24A701E70105900894079428F436
:102DF000360FE71EF81E491F511D660F771F881FEB
:102E0000991F0694A1F70590079428F4E70EF81E81
:102E1000491F561FC11D770F881F991F661F0694F3
:102E2000A1F70590079428F4F80E491F561FC71FF5
:102E3000D11D880F991F661F771F0694A1F7059073
:102E4000079420F4490F561FC71FD81F990F661FFC
:102E5000771F881F0694A9F784911095177041F089
:102E6000D695C79557954795F794E7941A95C1F766
:102E7000ECEBF0E068941590159135916591959182
:102E800005907FE27395E118F10A430B560BC90BCD
:102E9000D009C0F7E10CF11E431F561FC91FD01DFA
:102EA0007EF4703311F48A95E6CFE894015030F047
:102EB000080F0AF40027021708F4202F2395022F89
:102EC0007A3328F079E37D932A95E9F710C07D9352
:102ED0002A9589F6069497956795379517951794CF
:102EE000E118F10A430B560BC90BD00998F0239552
:102EF0007E9173957A3308F070E37C932013B8F7D2
:102F00007E9170617D9330F0839571E37D9370E3E2
:102F10002A95E1F71124EF90FF900F911F91CF9127
:102F2000DF91992787FD90950895FC0105906150E8
:102F300070400110D8F7809590958E0F9F1F0895CF
:102F4000FC016150704001900110D8F78095909578
:102F50008E0F9F1F08950F931F93CF93DF938C01C4
:102F6000EB018B8181FF1BC082FF0DC02E813F8151
:102F70008C819D812817390764F4E881F9810193D8
:102F8000F983E88306C0E885F985802F0995892BA8
:102F900031F48E819F8101969F838E8302C00FEF53
:102FA0001FEFC801DF91CF911F910F910895AEE0FF
:102FB000B0E0EDEDF7E10C9494160D891E8986E0E2
:102FC0008C831A8309838FEF9FE79E838D839E01F5
:102FD000275E3F4FCE0101966F89788DA9010E942F
:102FE0005E102F813885020F131FF80110822E9674
:102FF000E4E00C94B016FA01AA27283051F12031F0
:1030000081F1E8946F936E7F6E5F7F4F8F4F9F4F7C
:10301000AF4FB1E03ED0B4E03CD0670F781F891FBE
:103020009A1FA11D680F791F8A1F911DA11D6A0F8C
:10303000711D811D911DA11D20D009F468943F913F
:103040002AE0269F11243019305D3193DEF6CF013E
:103050000895462F4770405D4193B3E00FD0C9F704
:10306000F6CF462F4F70405D4A3318F0495D31FD71
:103070004052419302D0A9F7EACFB4E0A6959795C4
:10308000879577956795BA95C9F70097610571059A
:1030900008959B01AC010A2E0694579547953795E4
:1030A0002795BA95C9F7620F731F841F951FA01D3E
:0630B0000895F894FFCF23
:1030B600256C660054656D70004C69676874004144
:1030C6006363205800416363205900416363205ABB
:1030D6000042746E00040109010F0115011B012154
:0630E60001CDCCCC3F003F
:00000001FF
