:100000000C943E000C945B000C945B000C945B0021
:100010000C945B000C945B000C945B000C945B00F4
:100020000C945B000C9476010C945B000C945B00C8
:100030000C945B000C945B000C945B000C945B00D4
:100040000C9464000C945B000C945B000C945B00BB
:100050000C945B000C945B000C945B000C945B00B4
:100060000C945B000C945B000C945B000C945B00A4
:100070000C945B000C945B000C945B0011241FBE7D
:10008000CFEFD8E0DEBFCDBF11E0A0E0B1E0EEE5FC
:10009000FDE202C005900D92A836B107D9F713E032
:1000A000A8E6B1E001C01D92A63AB107E1F70E94AF
:1000B00098040C94AD160C94000084B18C7F84B924
:1000C00085B1836085B908951F920F920FB60F9284
:1000D00011242F938F939F93EF93FF938091940319
:1000E00020919503F82FE0E0E20FF11DEC56FE4F52
:1000F000808190E090938900809388002F5F209307
:10010000950380919503882331F49091940381E0C5
:10011000891B80939403FF91EF919F918F912F9171
:100120000F900FBE0F901F901895EEE6F0E08081C3
:100130008260808385B585BD84B5826084BD85B5C8
:10014000826085BD089515BC14BC10926E0017BC6A
:1001500016BC0895A1E8B0E08C9188608C93E0E82B
:10016000F0E08081816080838081806C80838C91CD
:1001700081608C93089510928100109280001092FB
:1001800089001092880010928500109284000895D2
:10019000189B03C021E030E007C083B1282F30E076
:1001A0003695279521703070C90108958CE78093AA
:1001B000B300E0E7F0E0808182608083E1EBF0E073
:1001C00080818083A0EBB0E08C9182608C938081F1
:1001D00085608083089508950895DF93CF93CDB708
:1001E000DEB760970FB6F894DEBF0FBECDBF18998B
:1001F00019C0199917C00E94E605CE01019663E463
:1002000071E00E947B0B892B31F080E060E071E0AF
:100210000E94D20507C080E06FE071E00E94D20525
:100220000E94E60560960FB6F894DEBF0FBECDBF04
:10023000CF91DF910895AF92BF92CF92DF92EF926C
:10024000FF920F931F93DF93CF93CDB7DEB7A6979F
:100250000FB6F894DEBF0FBECDBFBC018E010F5F9D
:100260001F4FC8010E947B0B21E1A22EB12CAC0EC6
:10027000BD1E68018E01065E1F4F90E9E92E91E0D8
:10028000F92EC601B5010E947009F8010190002005
:10029000E9F73197E01BF10B329770F080E0B8017D
:1002A0000E94D20580ED97E0F7013197F1F70197B1
:1002B000D9F70E94E605E5CFA6960FB6F894DEBF03
:1002C0000FBECDBFCF91DF911F910F91FF90EF90A7
:1002D000DF90CF90BF90AF900895189B06C0199BF8
:1002E00004C08AE191E00E941B0108951F920F92C1
:1002F0000FB60F9211240F931F932F933F934F9399
:100300005F936F937F938F939F93AF93BF93EF937D
:10031000FF93DF93CF93CDB7DEB72997DEBFCDBF75
:1003200080919B0390919C03019690939C038093F2
:100330009B030197885E934009F05AC010929C037A
:1003400010929B03809199038F5F80939903815052
:100350008C33B1F410929903809198038F5F80934E
:10036000980381508C3361F4109298038091970325
:100370008F5F809397038150883111F41092970317
:100380002091970330919803409199038DB79EB7C0
:100390000C970FB6F8949EBF0FBE8DBFEDB7FEB79A
:1003A00031968E010F5F1F4FADB7BEB712961C93EB
:1003B0000E93119789E090E09383828381E291E02C
:1003C000958384832683178230871186428713861C
:1003D0000E94C8138DB79EB70C960FB6F8949EBFB7
:1003E0000FBE8DBF0E94E00580E4B8010E94D205D7
:1003F0002996DEBFCDBFCF91DF91FF91EF91BF91E5
:10040000AF919F918F917F916F915F914F913F91AC
:100410002F911F910F910F900FBE0F901F90189565
:100420002F923F924F925F926F927F928F929F9204
:10043000AF92BF92CF92DF92EF92FF920F931F93F2
:10044000DF93CF93CDB7DEB72C970FB6F894DEBF0E
:100450000FBECDBF20919403922F80E08C569E4F0B
:100460006CE070E08E010F5F1F4FA8010E94400CEE
:10047000892B09F0C1C089819A810C9709F0C2C00B
:1004800080919403F82FE0E0E456FE4F8081918143
:10049000A281B38187559144A645B54409F0B2C005
:1004A000C8010B879C8780919403382E2224C101B8
:1004B0008C569E4F68E070E04B855C850E94400C36
:1004C00089819A81089709F09DC080919403D82E64
:1004D000CC2488E991E0C80ED91EF601E080F180B5
:1004E0000281138180919403582E4424F201EC562A
:1004F000FE4F80819181A281B3818C34F9E49F0702
:10050000F3E5AF07F4E5BF0709F465C08D3429E4CE
:10051000920723E5A20724E5B20738F486569D46E4
:10052000A447B04209F06EC010C08436F1E69F07C0
:10053000F4E7AF07F1E6BF0709F467C086569146B6
:10054000A346B44709F05EC046C0D801C701409732
:10055000A109B10985359105A105B10508F052C081
:10056000809194038C831B828B819C818C569E4F3F
:10057000B7014B855C850E94400C89819A81A0E07F
:10058000B0E08E159F05A007B107E1F580919403B7
:100590008E831D82ED81FE81EC56FE4F808181307D
:1005A00089F54EC080919403B82EAA2486E991E083
:1005B000A80EB91EF5018081823021F54EC08091D0
:1005C000940388871F82EF81F885EC56FE4F86855D
:1005D0008031C1F44EC08091800190918101A09141
:1005E0008201B0918301E80EF91E0A1F1B1FC8018A
:1005F000B7010E94300857CF31E0E32EF12C012DD6
:10060000112D03C0EE24FF248701B701C8012C96E9
:100610000FB6F894DEBF0FBECDBFCF91DF911F9113
:100620000F91FF90EF90DF90CF90BF90AF909F9091
:100630008F907F906F905F904F903F902F90089594
:1006400080919403982E882486E991E0880E991E63
:10065000F4018081813009F0A5CF809194038A87CD
:100660001986E985FA85EC56FE4F8685883009F0B3
:10067000A6CF80919403782E662488E991E0680ED5
:10068000791EF3012081318140E050E060E874E898
:100690008EE190E00E947C12215027BD04CFAF92E2
:1006A000BF92DF92EF92FF920F931F93DF93CF934E
:1006B00000D0CDB7DEB70E94D70B8C01009709F0B0
:1006C0007EC00E9410026F3F71058105910509F0FF
:1006D00018F403E010E073C0609180017091810113
:1006E000809182019091830161507E4F8F4F9F4F87
:1006F00060707E7F0E9430088C01009709F05FC017
:1007000020919403922F80E08C569E4F60E071E020
:100710007E010894E11CF11CA7010E94400C8C0191
:10072000009709F04CC089819A818F3F910509F0AB
:1007300008F445C0109295030E9495000E94AA00FB
:10074000559A51E0A52EB12CC701DE2CE92E1EC012
:10075000F0909403809194039501281B3109922F06
:1007600088278C569E4F60E071E04D2D5E2D0E94D3
:10077000400C9C01009779F489819A818F3F910503
:1007800051F048F080919403F816E1F30E94C800FC
:10079000892BF1F601C089015598109281001092C1
:1007A00080001092890010928800109285001092AB
:1007B000840015BC14BC10926E0017BC16BCC80196
:1007C0000F900F90CF91DF911F910F91FF90EF90BD
:1007D000DF90BF90AF9008958F929F92AF92BF929B
:1007E000CF92DF92EF92FF920F931F93DF93CF93FD
:1007F000CDB7DEB7A6970FB6F894DEBF0FBECDBF5C
:100800005C0180919A03882309F07AC08E010F5F02
:100810001F4FC801B5010E947B0B189924C0A1E1AC
:10082000CA2ED12CCC0EDD1EFAE1EF2EF12CEC0EEF
:10083000FD1EC801B6010E947009F7010190002059
:10084000E9F73197EE19FF09329798F3898D8230D5
:1008500081F3803171F3C70160E371E00E94AE1350
:10086000009739F32DC019994BC0CC24DD24E1E168
:100870008E2E912C8C0E9D1E7AE1E72EF12CEC0E23
:10088000FD1E03C061E0C62ED12CC801B4010E9438
:100890007009F70101900020E9F73197EE19FF097F
:1008A000329798F3898D823081F3803171F3C701DB
:1008B00060E371E00E94AE13009739F3CD2811F385
:1008C00084E690E00E949712182F092FB5010E942C
:1008D000A713812F902F65E371E00E949C13812F55
:1008E000902FB7010E949C130E94E60580E0B7019B
:1008F0000E94D205812F902F0E944F030E94E6058F
:10090000A6960FB6F894DEBF0FBECDBFCF91DF9194
:100910001F910F91FF90EF90DF90CF90BF90AF901D
:100920009F908F9008958AE491E00E94EC030895CF
:10093000CF93DF9384B18C7F84B985B1836085B90F
:100940000E94EC057894C0E9D1E088E691E00E942D
:10095000E00E892B69F080E067E371E00E94D20528
:1009600088EE93E0FE013197F1F70197D9F7EDCFCB
:100970000E94E605C0E9D1E00E946D010E94930447
:100980000E94ED0080ED97E0FE013197F1F70197AD
:10099000D9F7F2CF429A98B1482F50E0881F8827A4
:1009A000881F8295880F880F807C9A01369527953D
:1009B00020723070822B9778892B9A013695279573
:1009C00020713070822B9A013695279528703070EF
:1009D000822B88B900C000C0429800C000C0429A73
:1009E00028B1CA018170907063E0880F991F6A95E1
:1009F000E1F72778282BCA0133E0880F991F3A9531
:100A0000E1F780749070282B93E0440F551F9A955E
:100A1000E1F7CA0180729070282B40715070242B2E
:100A200028B900C000C0429800C000C00895CF920D
:100A3000DF92EF92FF920F931F9387B1877887B968
:100A400088B1877888B9429A00C000C046B166B1C3
:100A5000E6B106B1429800C000C0429A00C000C092
:100A6000A6B1E6B0C6B086B1429800C000C027B1BA
:100A7000286727B990E0B3E095958795BA95E1F797
:100A8000817050E0F6E055954795FA95E1F7569557
:100A9000542F442757954795842B70E0660F771F96
:100AA00060747070862BF0E0EE0FFF1FE072F07044
:100AB0008E2B10E0000F111F00711070802BB0E022
:100AC00013E0B695A7951A95E1F7A870B0708A2B38
:100AD000FF24B3E0F694E794BA95E1F794E0E922B5
:100AE000FF248E29DD24A3E0D694C794AA95E1F7CC
:100AF00092E0C922DD248C291F910F91FF90EF9085
:100B0000DF90CF900895409A419A00C000C00E94A3
:100B1000170508954098419A00C000C00E9417052B
:100B200008950E948A05881F8827881F08950E94BB
:100B300091058823E1F708951F93182F0E949705C8
:100B4000409A419800C000C0812F0E94CA041F91A2
:100B500008950E949C050895CF93DF93EC0103C094
:100B600021960E949C0588818823D1F700C000C08F
:100B7000DF91CF9108951F93182F0E9497054098F9
:100B8000419800C000C0812F0E94CA041F9108959F
:100B90001F93162F80580E94BB05812F0E949C0531
:100BA0001F9108950F931F938B0180680E94BB05CE
:100BB000C8010E94AC0500C000C01F910F910895AC
:100BC00080E460E571E00E94D205089580E060E570
:100BD00071E00E94D205089587B1886787B987B10F
:100BE000876087B94098419800C000C0429A88B198
:100BF0008778806188B900C000C0429800C000C0FA
:100C000088E20E94BB058FE00E94BB0586E00E943F
:100C1000BB0581E00E94BB050895CF92DF92EF9261
:100C2000FF920F931F93CF93DF936C01C0919D03AD
:100C3000D0919E03FC01118210822481358146816E
:100C40005781213031054105510509F45CC0888583
:100C50009985AA85BB85281739074A075B0708F0DD
:100C600052C0211531054105510539F48881833081
:100C700021F4288939894A895B89F60120873187DF
:100C800042875387211531054105510581F18EEFCA
:100C9000E82E8FEFF82E8FEF082F8FEF182FE20E30
:100CA000F31E041F151F88859985AA85BB850297A9
:100CB000A109B109E816F9060A071B0728F020E088
:100CC00030E040E050E017C0298130E040E050E0E3
:100CD000C801B7010E943B129B01AC018C899D8920
:100CE000AE89BF89280F391F4A1F5B1F04C028899E
:100CF00039894A895B89F601248735874687578772
:100D000020E030E002C021E030E0C901DF91CF9166
:100D10001F910F91FF90EF90DF90CF9008956F9209
:100D20007F928F929F92AF92BF92CF92DF92EF927B
:100D3000FF920F931F93DF93CF9300D000D0CDB7D6
:100D4000DEB74B015C0160909D0370909E0382E0D2
:100D500088169104A104B10408F4B1C0F3018085A0
:100D60009185A285B38588169906AA06BB0608F068
:100D7000A6C08081823009F45CC0833009F478C059
:100D8000813009F09CC0C40196958795880D991D06
:100D90009C013170892F992786956C01EE24FF24E0
:100DA000F3014485558566857785CE010196F1E08E
:100DB0002F3F3F0749F0C40ED51EE61EF71EB701B0
:100DC000A60102E010E01EC04C0D5D1D6E1D7F1DD2
:100DD0002FEF31E001E010E00E947E10892B09F036
:100DE0006EC0F30144855585668577854F5F5F4FFB
:100DF0006F4F7F4F4C0D5D1D6E1D7F1DCE01029606
:100E000020E030E00E947E10892B09F058C06981F3
:100E10007A8180FE07C0A4E076956795AA95E1F7F0
:100E20009B0123C09B0140E050E03F704070507038
:100E30004AC077276B2D5A2D492DF301848595855E
:100E4000A685B785480F591F6A1F7B1F9401307014
:100E5000220F331FCE01019602E010E00E947E10A7
:100E6000892B69F589819A819C0140E050E02BC073
:100E7000B501A40127E076956795579547952A9582
:100E8000D1F7F30184859585A685B785480F591F4D
:100E90006A1F7B1F94012F773070220F331F220FA0
:100EA000331FCE01019604E010E00E947E10892BD2
:100EB00031F429813A814B815C815F7004C021E06B
:100EC00030E040E050E0B901CA010F900F900F9060
:100ED0000F90CF91DF911F910F91FF90EF90DF90D6
:100EE000CF90BF90AF909F908F907F906F9008951C
:100EF000AF92BF92CF92DF92EF92FF920F931F9328
:100F0000CF93DF935C01C0919D03D0919E03FC01C0
:100F1000C080D1800894C11CD11CC114D10409F433
:100F200091C02485358546855785211531054105B4
:100F3000510509F487C0C6018F709070892B09F0A4
:100F40007BC02F5F3F4F4F4F5F4F248735874687CA
:100F50005787408551856285738541155105610527
:100F6000710539F48C819D81C816D90608F464C0D6
:100F700069C0898190E001979601E4E03695279554
:100F8000EA95E1F782239323892B09F055C0CB0121
:100F9000BA010E948F069B01AC0162307105810588
:100FA000910518F421E030E04FC088859985AA8525
:100FB000BB85281739074A075B0708F043C0F501CE
:100FC0002087318742875387C0919D03D0919E032C
:100FD0008EEFE82E8FEFF82E8FEF082F8FEF182F60
:100FE000E20EF31E041F151F88859985AA85BB850F
:100FF0000297A109B109E816F9060A071B0728F0AC
:1010000020E030E040E050E012C0298130E040E0D4
:1010100050E0C801B7010E943B129B01AC018C89D2
:101020009D89AE89BF89280F391F4A1F5B1FF501B3
:101030002487358746875787F501D182C08220E013
:1010400030E002C023E030E0C901DF91CF911F9171
:101050000F91FF90EF90DF90CF90BF90AF900895E9
:101060002F923F924F925F926F927F928F929F92B8
:10107000AF92BF92CF92DF92EF92FF920F931F93A6
:10108000CF93DF93E82FC0919D03D0919E032097CB
:1010900019F426E030E010C18A8180FD03C025E00C
:1010A00030E00AC1AC8CBD8CCE8CDF8C4E2F592F1A
:1010B000CB01DA013C014D01A614B704C804D904E0
:1010C00010F435014601288D398D4A8D5B8D188EBF
:1010D000198E1A8E1B8E611471048104910409F417
:1010E000E9C08981A82EBB24CC24DD2499E0AA0C78
:1010F000BB1CCC1CDD1C9A95D1F72115310541058F
:101100005105B1F119012A0108942108310841085B
:101110005108C401B3016150704080409040A60165
:1011200095010E945A1279018A01C201B101A601FA
:1011300095010E945A12E216F30604071507C0F043
:1011400088279927DC018A199B09AC09BD098221EE
:101150009321A421B521888F998FAA8FBB8F681AFC
:10116000790A8A0A9B0A2CA13DA14EA15FA133C036
:1011700028A139A14AA15BA12CA33DA34EA35FA343
:101180002AC0CA01B9010E948F069B01AC016230DE
:1011900071058105910508F489C088859985AA851E
:1011A000BB85281739074A075B0708F07FC02CA3C7
:1011B0003DA34EA35FA3888D998DAA8DBB8D8A0D0B
:1011C0009B1DAC1DBD1D888F998FAA8FBB8F6A1880
:1011D0007B088C089D08A614B704C804D90488F2BB
:1011E000888D998DAA8DBB8D860D971DA81DB91D63
:1011F000888F998FAA8FBB8F00919D0310919E03BA
:101200008EEFA82E8FEFB82E8FEFC82E8FEFD82E2F
:10121000A20EB31EC41ED51EF80180859185A2853D
:10122000B3850297A109B109A816B906CA06DB065B
:10123000E8F5218130E040E050E0C601B5010E94B0
:101240003B129B01AC01F80184899589A689B78975
:10125000280F391F4A1F5B1F211531054105510514
:1012600029F1D401C30119E0B695A7959795879503
:101270001A95D1F7982F8B83FFEFEF2EF1E0FF2E19
:10128000012D112D6E207F20802291226114710486
:101290008104910479F0280F311D411D511D28A7AB
:1012A00039A74AA75BA79F5F9B8304C01A8221E0EE
:1012B00030E002C020E030E0C901DF91CF911F9102
:1012C0000F91FF90EF90DF90CF90BF90AF909F90E5
:1012D0008F907F906F905F904F903F902F900895E8
:1012E000AF92BF92CF92DF92EF92FF920F931F9334
:1012F000DF93CF93CDB7DEB7AC970FB6F894DEBFD0
:101300000FBECDBF7C015B01E0919D03F0919E0378
:10131000309719F426E030E0CDC0CE010D969783CA
:101320008683CE010196D70113969C938E931297D4
:101330006115710529F4C7010E940D069C01BAC010
:10134000C680D78023E030E025C0F70120813181BD
:101350002F703070E5E0220F331FEA95E1F7C601E8
:1013600000E210E00E947E10892B09F4B5C021E054
:1013700030E01DC0D6011B968C91953E29F09E321F
:1013800019F08F7383FF21C0C7010E9478079C0169
:10139000009769F4F7014485558566857785411581
:1013A00051056105710589F62115310571F0D701E7
:1013B0001C961D921D921D921C921F972330310581
:1013C00021F02115310509F075C09501275F3F4FC8
:1013D000F70184859585A685B7850097A105B10598
:1013E00009F456C0E0919D03F0919E034681578118
:1013F00080E090E0FA01E80FF91FE081E03251F05F
:10140000E53009F4E5EED901ED939D0101968830B0
:10141000910581F7FA018085803211F4F90110C03D
:10142000F9018EE28193DA012C5F3F4F18968C917F
:101430001897803229F081931196E217F307B1F7DC
:10144000DA011B968C91D50118968C93DA015C9683
:101450000D911D912D913C915F97D5010D931D9399
:101460002D933C931397DA0158968D919C9159973F
:10147000D50115969C938E931497DA0156968D910B
:101480009C915797D50117969C938E9316979F0121
:10149000F9011082C7010E9478079C0183309105F1
:1014A00049F4D7011C961D921D921D921C921F9704
:1014B00020E030E0C901AC960FB6F894DEBF0FBE55
:1014C000CDBFCF91DF911F910F91FF90EF90DF90F3
:1014D000CF90BF90AF900895F6019081992309F0C5
:1014E00049CF23E030E063CF5F926F927F928F927B
:1014F0009F92AF92BF92CF92DF92EF92FF920F93A3
:101500001F93CF93DF936C015B0103C00894A11C70
:10151000B11CD5018C918032C9F38F3219F4089433
:10152000A11CB11CF6011482158216821782D50106
:101530008C91813268F4C6010E940D06EC01E091A5
:101540009D03F0919E030680F781E02D1082A8C0D4
:1015500090E2592E88248394F601A281B381FD0183
:10156000CD010B9601C05192E817F907E1F720E091
:10157000992438E002C028E03BE0F501E90DF11DB7
:10158000908193949132B0F09F32A1F09E3211F08D
:10159000231728F0383071F49E3269F30BC0892F7D
:1015A00081568A3108F49052FD01E20FF11D9083BB
:1015B0002F5FE3CF1B961C921B97913210F41B9662
:1015C0008C92C6010E940D06EC010097D1F5E091C6
:1015D0009D03F0919E03E680F7808BE0682E712CCE
:1015E0006E0C7F1CD6011C964D915D916D917C9186
:1015F0001F972D913C912F70307005E0220F331F03
:101600000A95E1F7C70100E210E00E947E10892BE5
:10161000A9F457C0F701838583FD59C0F601A28163
:10162000B381F701E615F70509F45BC090818C9151
:10163000981709F04CC031961196F4CF81E090E0F4
:10164000EC01C330D10561F5D6011296ED91FC9104
:1016500013978385882311F123C0E0919D03F091B6
:101660009E030680F781E02D838584FF17C0A90CB7
:10167000B11C84899589A0E0B0E0DC019927882716
:10168000228D338D40E050E0822B932BA42BB52B81
:10169000F60184839583A683B7835ECFC4E0D0E050
:1016A000CE01DF91CF911F910F91FF90EF90DF90CE
:1016B000CF90BF90AF909F908F907F906F905F90F2
:1016C0000895D7018C91882309F0A4CF07C0C601E3
:1016D0000E947807009709F485CFB2CFC3E0D0E02D
:1016E000B0CFD6011296ED91FC9113978385882394
:1016F00009F4B3CFD5CFEF92FF920F931F93DF93EF
:10170000CF93CDB7DEB7AC970FB6F894DEBF0FBE60
:10171000CDBF8C01E0919D03F0919E03309719F4A9
:1017200026E030E036C03DE0E32EF12CEC0EFD1E4D
:10173000F782E682CE010196F80193838283C80185
:101740000E94740A9C010097F9F48D858823C1F0EA
:10175000888D84FF1CC0F70184899589A0E0B0E0E2
:10176000DC0199278827228D338D40E050E0822BC1
:10177000932BA42BB52BF80184839583A683B78381
:10178000C8010E940D069C012330310511F424E0AC
:1017900030E0C901AC960FB6F894DEBF0FBECDBFE6
:1017A000CF91DF911F910F91FF90EF900895EF92ED
:1017B000FF920F931F93DF93CF93CDB7DEB7EC97D4
:1017C0000FB6F894DEBF0FBECDBFBC0100919D03E4
:1017D00010919E030115110519F466E070E042C0F6
:1017E000F80112825DE1E52EF12CEC0EFD1EF78270
:1017F000E682CE010196988B8F87CE010D960E94CE
:10180000740ABC01009771F58D8D882349F188A574
:1018100084FD26C0F70184899589A0E0B0E0DC0151
:1018200099278827228D338D40E050E0822B932B1F
:10183000A42BB52BF80180A391A3A2A3B3A3F70116
:10184000848D958DA68DB78DF801848F958FA68F89
:10185000B78F108E118E128E138E81E0828302C09C
:1018600063E070E0CB01EC960FB6F894DEBF0FBEDC
:10187000CDBFCF91DF911F910F91FF90EF90089511
:101880004F925F926F927F928F929F92AF92BF9290
:10189000CF92DF92EF92FF920F931F93CF93DF933C
:1018A0003C016B014A01C0919D03D0919E03FA0156
:1018B00011821082209719F426E030E0DDC08A8181
:1018C00080FD03C025E030E0D7C02C8D3D8D4E8DCE
:1018D0005F8D888D998DAA8DBB8D281B390B4A0B86
:1018E0005B0BCB01A0E0B0E0281739074A075B0784
:1018F00008F469015301412CF2E05F2EB3C0E88C7B
:10190000F98C0A8D1B8DD801C7019170A070B07041
:101910000097A105B10509F06BC0C801B701E9E066
:101920009695879577956795EA95D1F7298130E067
:1019300040E050E00E945A12611571058105910541
:10194000D9F4E114F1040105110529F468A179A184
:101950008AA19BA106C06CA17DA18EA19FA10E941E
:101960008F06623071058105910508F482C06CA371
:101970007DA38EA39FA31B8200919D0310919E03C4
:101980002CA13DA14EA15FA12250304040405040CB
:10199000F80180859185A285B3850297A109B109D7
:1019A000281739074A075B0708F063C0618170E0B8
:1019B00080E090E00E943B129B01AC01F801848919
:1019C0009589A689B789280F391F4A1F5B1F2115E2
:1019D00031054105510509F44CC08B81280F311D9B
:1019E000411D511D28A739A74AA75BA78F5F8B838D
:1019F000088D198D2A8D3B8DC8019170A201481B5D
:101A0000590B76014C155D0508F47A0161147104D7
:101A100019F480E090E001C0C50148A559A56AA568
:101A20007BA59801317087010E947E10892B09F5F2
:101A3000C701A0E0B0E0288D398D4A8D5B8D280F5D
:101A4000391F4A1F5B1F288F398F4A8F5B8FAE0C5F
:101A5000BF1CCE18DF08F401808191818E0D9F1D7F
:101A600091838083C114D10409F049CF20E030E094
:101A700003C01A8221E030E0C901DF91CF911F91AC
:101A80000F91FF90EF90DF90CF90BF90AF909F901D
:101A90008F907F906F905F904F900895AF92BF921C
:101AA000CF92DF92EF92FF920F931F93CF93DF932A
:101AB000B82EA92E6A017B012EEF31E002E010E082
:101AC0000E947E10892B11F023E023C0CB2DDA2D4C
:101AD0008881998185559A4A11F022E01AC08B2D90
:101AE0009A2DB701A60126E330E002E010E00E9443
:101AF0007E10892BD1F48881998186549144A9F470
:101B000020E007C020E0888199818654914409F043
:101B100021E0822FDF91CF911F910F91FF90EF90E5
:101B2000DF90CF90BF90AF9008958B2D9A2DB70185
:101B3000A60122E530E002E010E00E947E10892B31
:101B400009F3E6CF4F925F926F927F928F929F92AE
:101B5000AF92BF92CF92DF92EF92FF920F931F93BB
:101B6000CF93DF93FC015B013A01C0919D03D091BB
:101B70009E03DA011D921C92209719F426E030E0B2
:101B800007C18A8190E080FD03C025E030E000C1FC
:101B9000807490706115710579F4892B09F40AC17C
:101BA00080E090E040E050E060E070E00E94E710EC
:101BB000892B09F4FFC0E9C0892B51F4888D998DD8
:101BC000AA8DBB8D80709E7F888F998FAA8FBB8FC7
:101BD0002C8D3D8D4E8D5F8D888D998DAA8DBB8D01
:101BE000281B390B4A0B5B0BC501A0E0B0E028179E
:101BF00039074A075B0708F459014F01412CB2E04D
:101C00005B2EBEC0E88CF98C0A8D1B8DC7019170CC
:101C1000892B09F077C0C801B701A9E0969587958F
:101C200077956795AA95D1F7298130E040E050E09B
:101C30000E945A126115710581059105D9F4E114CC
:101C4000F1040105110529F468A179A18AA19BA1DC
:101C500006C06CA17DA18EA19FA10E948F0662305B
:101C600071058105910508F490C06CA37DA38EA336
:101C70009FA31B8200919D0310919E032CA13DA167
:101C80004EA15FA12250304040405040F801808575
:101C90009185A285B3850297A109B1092817390753
:101CA0004A075B0708F071C0618170E080E090E056
:101CB0000E943B129B01AC01F80184899589A68999
:101CC000B789280F391F4A1F5B1F211531054105B0
:101CD000510509F45AC08B81BA01A901480F511D61
:101CE000611D711D48A759A76AA77BA78F5F8B83CA
:101CF00080E090E00E94E710892B09F046C08A81BD
:101D000080648A83888D998D91709201281B390B8C
:101D100065012A153B0508F46901760100E010E031
:101D2000C401B801A7010E94E710892B71F5888DC5
:101D3000998DAA8DBB8D8E0D9F1DA01FB11F9C017B
:101D4000888F998FAA8FBB8FD3018D919C9111970A
:101D50008C0D9D1D8D939C933170232B69F480E035
:101D600090E040E050E060E070E00E94E710892BD6
:101D700061F48A818F7B8A838C0C9D1CAC18BD0812
:101D8000A114B10409F03ECF18C01A8221E030E05E
:101D9000C901DF91CF911F910F91FF90EF90DF90DC
:101DA000CF90BF90AF909F908F907F906F905F90FB
:101DB0004F9008958A818F7B8A8320E030E0E8CFBE
:101DC0006F927F928F929F92AF92BF92CF92DF924B
:101DD000EF92FF920F931F93DF93CF93CDB7DEB7B0
:101DE000A4970FB6F894DEBF0FBECDBF5C01109272
:101DF0009E0310929D03009709F4EEC00E946911A2
:101E000080FF03C022E030E0EFC04E010894811C47
:101E1000911CC40140E050E060E070E00E944E0D73
:101E2000813021F0CC24DD2476011BC0C40140E0C8
:101E300050E060E070E02EEB31E000E110E00E9445
:101E40007E10892B09F0CBC08D81882309F4CAC08C
:101E5000C984DA84EB84FC84C401B701A6010E9422
:101E60004E0D833009F4BBC0882309F0BBC0CE01FE
:101E70000196B701A6012DE030E004E210E00E94D7
:101E80007E10892B09F0ABC08A859B85BC0180E060
:101E900090E0611571058105910521F4688D798DBA
:101EA0008A8D9B8D2C8130E040E050E00E943B12F7
:101EB0003B014C018A819B81A0E0B0E0C80ED91E95
:101EC000EA1EFB1EF501C486D586E686F786898163
:101ED00081832D813E81358324838F8198857C0188
:101EE00000E010E0E114F1040105110521F4EC8893
:101EF000FD880E891F898A819B81A0E0B0E0E81AE5
:101F0000F90A0A0B1B0BE618F7080809190984E0FF
:101F1000369527958A95E1F7C901A0E0B0E0E81A67
:101F2000F90A0A0B1B0BF501218130E040E050E07B
:101F3000C801B7010E945A122E5F3F4F4F4F5F4FAB
:101F4000F5012087318742875387273FFFE03F070E
:101F5000F0E04F07F0E05F0710F481E008C0275F72
:101F60003F4F4040504010F083E001C082E0F50157
:101F70008083833029F488A199A1AAA1BBA109C0BB
:101F8000F50184859585A685B785860D971DA81DC5
:101F9000B91D808B918BA28BB38BF50184819581C8
:101FA00014E0969587951A95E1F7A0E0B0E02485B6
:101FB000358546855785820F931FA41FB51F860D53
:101FC000971DA81DB91D848B958BA68BB78B12828C
:101FD000B0929E03A0929D0320E030E005C021E076
:101FE00030E002C027E030E0C901A4960FB6F894B3
:101FF000DEBF0FBECDBFCF91DF911F910F91FF903C
:10200000EF90DF90CF90BF90AF909F908F907F9098
:102010006F90089581E08CBD289A5E9A08958FEFA5
:102020008EBD0DB407FEFDCF8EB508958EBD0EB4E6
:1020300007FEFDCF0895DF92EF92FF920F931F935B
:10204000D82E7A018B0187FF0CC087E740E050E073
:1020500060E070E00E941B10823008F049C08FE7FA
:10206000D8225E9A8FEF8EBD0DB407FEFDCF8EB5E0
:102070005E988FEF8EBD0DB407FEFDCF8EB5DEBC32
:102080000EB407FEFDCF812F9927AA27BB278EBD4F
:102090000EB407FEFDCFC801AA27BB278EBD0EB424
:1020A00007FEFDCFBB27A12F902F8F2D8EBD0EB425
:1020B00007FEFDCFEEBC0EB407FEFDCF80E4D816C0
:1020C00011F485E906C088E4D81611F487E801C048
:1020D00081E08EBD0EB407FEFDCF9AE02FEF2EBD3E
:1020E0000DB407FEFDCF8EB587FF02C09150B9F742
:1020F0001F910F91FF90EF90DF900895EF92FF9264
:102100000F931F93CF93DF937C01E90180919F038D
:1021100083FD07C039E0440F551F661F771F3A95AE
:10212000D1F781E50E941B10882309F03FC080E3AE
:1021300095E73FEF3EBD0DB407FEFDCF2EB52F3F17
:1021400019F4019799F1F6CF2E3F81F52227332715
:102150002C1B3D0B2E5F3D4F201B310B209741F078
:102160008FEF8EBD0DB407FEFDCF9EB52197C9F749
:10217000E114F10479F09FEF9EBD0DB407FEFDCF91
:102180008EB5F70180830150104021F00894E11CC6
:10219000F11CF2CF8FEF8EBD0DB407FEFDCF9EB5C3
:1021A00021503040C1F720E030E002C021E030E0B3
:1021B0005E9A8FEF8EBD0DB407FEFDCF8EB5C901BF
:1021C000DF91CF911F910F91FF90EF900895FC0147
:1021D000009709F12091A0033091A1030AC08081EA
:1021E0008EBD0EB407FEFDCF3196415050402150B8
:1021F00030404115510529F43093A1032093A003E9
:1022000007C02115310559F71092A1031092A003C0
:1022100020E030E05CC0411551056105710521F1F8
:1022200080919F0383FD07C0E9E0440F551F661F9F
:10223000771FEA95D1F788E50E941B10882319F0D3
:1022400021E030E044C08FEF8EBD0EB407FEFDCF1D
:102250008EEF8EBD0EB407FEFDCF80E092E090932E
:10226000A1038093A003D4CF8091A0039091A103F8
:10227000029605C01EBC0EB407FEFDCF0197009765
:10228000C9F78FEF8EBD0DB407FEFDCF8EB58F71F0
:102290008530A1F448EE5DEF9FEF9EBD0DB407FEC3
:1022A000FDCF8EB58F3F31F04115510539F04150CA
:1022B0005040F3CF20E030E0452B11F421E030E036
:1022C0005E9A8FEF8EBD0DB407FEFDCF8EB5C901AE
:1022D0000895CF92DF92EF92FF920F931F93DF93B7
:1022E000CF9300D000D0CDB7DEB75E9A8DE08A954F
:1022F000F1F7000081E08CBD289A5E9A2C9908C005
:1023000080E090E040E050E060E070E00E94E71084
:1023100084E69FEF9EBD0DB407FEFDCF2EB5815024
:10232000C9F780E440E050E060E070E00E941B10DC
:10233000813009F07FC088E44AEA51E060E070E053
:102340000E941B10813009F04CC06E010894C11C22
:10235000D11C76019FEF9E012B5F3F4F9EBD0DB4B8
:1023600007FEFDCF8EB5F70181937F01E217F307DA
:10237000A9F78B81813009F05DC08C818A3A09F020
:1023800059C000EE1EE289EE40E050E060E070E4EB
:102390000E941B10882309F468C00150104009F402
:1023A00049C0F1CF8AE740E050E060E070E00E9471
:1023B0001B10882309F03EC09FEF9EBD0DB407FEA1
:1023C000FDCF8EB5F60181936F01EE15FF05A9F7DC
:1023D000898186FD03C004E0F02E2DC01CE0F12EA3
:1023E0002AC089EE40E050E060E070E00E941B10DF
:1023F000823028F0B1E4EB2EFF24F39404C0A9EE60
:10240000EA2EF2E0FF2E08EA11E68E2D40E050E0C1
:1024100060E070E00E941B10882351F101501040D1
:1024200049F0F3CF80E540E052E060E070E00E94C8
:102430001B108111FF24F0929F035E9A8FEF8EBDD7
:102440000DB407FEFDCF8EB580E0FF2009F481E0DA
:102450000F900F900F900F90CF91DF911F910F91E0
:10246000FF90EF90DF90CF900895012B19F39ACF52
:10247000012B01F3D7CF629FD001739FF001829FA0
:10248000E00DF11D649FE00DF11D929FF00D839F03
:10249000F00D749FF00D659FF00D9927729FB00DA0
:1024A000E11DF91F639FB00DE11DF91FBD01CF01B3
:1024B00011240895A1E21A2EAA1BBB1BFD010DC019
:1024C000AA1FBB1FEE1FFF1FA217B307E407F507E4
:1024D00020F0A21BB30BE40BF50B661F771F881FC0
:1024E000991F1A9469F760957095809590959B0156
:1024F000AC01BD01CF01089597FB092E05260ED032
:1025000057FD04D0D7DF0AD0001C38F45095409511
:10251000309521953F4F4F4F5F4F0895F6F79095B7
:102520008095709561957F4F8F4F9F4F0895CF9302
:10253000DF93BC018230910510F462E070E0A0915D
:10254000A403B091A503ED01E0E0F0E040E050E02D
:1025500021C0888199818617970769F48A819B81B8
:10256000309719F09383828304C09093A5038093DE
:10257000A403FE0134C06817790738F441155105EA
:1025800019F08417950708F4AC01FE018A819B813C
:102590009C01E9012097E9F641155105A9F1CA010D
:1025A000861B970B049708F4BA01E0E0F0E02AC01C
:1025B0008D919C91119784179507F9F4641775070D
:1025C00081F412968D919C911397309719F0938313
:1025D000828304C09093A5038093A403FD013296E7
:1025E0004FC0CA01861B970BFD01E80FF91F6193CD
:1025F000719302978D939C9343C0FD0182819381D7
:102600009C01D9011097A1F68091A2039091A30398
:10261000892B41F480916301909164019093A3030D
:102620008093A203409165015091660141155105C7
:1026300041F44DB75EB78091610190916201481BF2
:10264000590B2091A2033091A30324173507B0F44E
:10265000CA01821B930B8617970780F0AB014E5F70
:102660005F4F8417950750F0420F531F5093A303F9
:102670004093A203F9016193719302C0E0E0F0E09E
:10268000CF01DF91CF910895CF93DF93009709F4A5
:1026900050C0EC0122971B821A82A091A403B09132
:1026A000A503109709F140E050E0AC17BD0708F111
:1026B000BB83AA83FE0121913191E20FF31FAE1774
:1026C000BF0779F48D919C911197280F391F2E5FC8
:1026D0003F4F3983288312968D919C9113979B834A
:1026E0008A834115510571F4D093A503C093A403C7
:1026F00020C012968D919C911397AD01009711F017
:10270000DC01D3CFFA01D383C28321913191E20F4F
:10271000F31FCE17DF0769F488819981280F391FCD
:102720002E5F3F4FFA01318320838A819B819383FF
:102730008283DF91CF910895FB01DC010D90002091
:10274000E9F7119701900D920020E1F70895FB0140
:10275000DC0101900D920020E1F70895FB015191F9
:102760005523A9F0BF01DC014D9145174111E1F757
:1027700059F4CD010190002049F04D9140154111CF
:10278000C9F3FB014111EFCF81E090E0019708957B
:10279000AEE0B0E0EEECF3E10C9484160D891E89F6
:1027A0008F89988D97FF02C080E090E801979E8303
:1027B0008D831A83098386E08C839E01255E3F4FBB
:1027C000CE010196698D7A8DA9010E94F9134D8180
:1027D0005E8157FD0AC02F813885421753070CF4DC
:1027E0009A01020F131FF80110822E96E4E00C9458
:1027F000A016ABE0B0E0EFEFF3E10C9476163C01ED
:102800002B015A01FC0117821682838181FD03C0CE
:102810006FEF7FEFC6C19AE0892E1E010894211C3C
:10282000311CF3012381F20123FD859123FF819166
:102830002F01882309F4B2C1853239F423FD859133
:1028400023FF81912F01853229F490E0B3010E948A
:10285000EC15E7CF982FFF24EE249924FFE1FF1514
:10286000D0F09B3269F09C3228F4903259F09332C8
:1028700091F40EC09D3249F0903369F441E024C0D8
:1028800052E0F52A84E0F82A28C098E0F92A25C009
:10289000E0E1FE2A22C0F7FC29C0892F80538A304C
:1028A00070F4F6FE05C0989C902C1124980E15C06B
:1028B000E89CE02C1124E80EF0E2FF2A0EC09E32C4
:1028C00029F4F6FC6BC140E4F42A07C09C3619F4E5
:1028D00050E8F52A02C0983649F4F20123FD95919B
:1028E00023FF91912F01992309F0B8CF892F8554A7
:1028F000833018F08052833038F444E050E0A40E66
:10290000B51E5FE359830FC0933631F0933779F0EA
:10291000933509F056C020C0F5018081898342E0DB
:1029200050E0A40EB51E610101E010E012C0F501F7
:10293000C080D180F6FC03C06FEF7FEF02C0692D2D
:1029400070E042E050E0A40EB51EC6010E94E11501
:102950008C015FE7F52214C0F501C080D180F6FC40
:1029600003C06FEF7FEF02C0692D70E042E050E0DE
:10297000A40EB51EC6010E94D6158C0150E8F52A9A
:10298000F3FE07C01AC080E290E0B3010E94EC158C
:10299000EA948E2D90E008171907A8F30EC0F601EF
:1029A000F7FC8591F7FE81916F0190E0B3010E94E1
:1029B000EC15E110EA94015010400115110579F76A
:1029C000EAC0943611F0993669F5F7FE08C0F501B2
:1029D000208131814281538184E090E00AC0F50179
:1029E000808191819C01442737FD4095542F82E0DE
:1029F00090E0A80EB91E9FE6F92257FF09C0509536
:102A00004095309521953F4F4F4F5F4FE0E8FE2AAC
:102A1000CA01B901A1012AE030E00E941816D82E9F
:102A2000D21840C0953729F41F2D1F7E2AE030E0D0
:102A30001DC01F2D197F9F3661F0903720F4983507
:102A400009F0ACC00FC0903739F0983709F0A6C034
:102A500004C028E030E00AC0106114FD146020E1D9
:102A600030E004C014FD166020E132E017FF08C01A
:102A7000F501608171818281938144E050E008C05A
:102A8000F50180819181BC0180E090E042E050E05E
:102A9000A40EB51EA1010E941816D82ED2188FE7D9
:102AA000F82EF122F6FE0BC05EEFF522D91438F4B1
:102AB000F4FE07C0F2FC05C08FEEF82202C01D2D07
:102AC00001C0192DF4FE0DC0FE01ED0DF11D808138
:102AD000803319F499EEF92208C01F5FF2FE05C099
:102AE00003C08F2D867809F01F5F0F2DF3FC14C0F3
:102AF000F0FE0FC01E1510F09D2C0BC09D2C9E0CDF
:102B0000911A1E2D06C080E290E0B3010E94EC15E0
:102B10001F5F1E15C0F304C01E1510F4E11A01C09A
:102B2000EE2404FF0FC080E390E0B3010E94EC1597
:102B300002FF1DC001FD03C088E790E00EC088E5DC
:102B400090E00BC0802F867891F001FF02C08BE2ED
:102B500001C080E2F7FC8DE290E0B3010E94EC1529
:102B600006C080E390E0B3010E94EC159A94D9145A
:102B7000C0F3DA94F101ED0DF11D808190E0B30115
:102B80000E94EC15DD20A9F706C080E290E0B301B9
:102B90000E94EC15EA94EE20C1F743CEF301668162
:102BA0007781CB012B96E2E10C949216FC01059003
:102BB000615070400110D8F7809590958E0F9F1F3F
:102BC0000895FC016150704001900110D8F7809584
:102BD00090958E0F9F1F08950F931F93CF93DF93B0
:102BE0008C01EB018B8181FF1BC082FF0DC02E8108
:102BF0003F818C819D812817390764F4E881F98130
:102C00000193F983E88306C0E885F985802F09954B
:102C1000892B31F48E819F8101969F838E8302C020
:102C20000FEF1FEFC801DF91CF911F910F91089512
:102C3000FA01AA27283051F1203181F1E8946F93ED
:102C40006E7F6E5F7F4F8F4F9F4FAF4FB1E03ED093
:102C5000B4E03CD0670F781F891F9A1FA11D680F31
:102C6000791F8A1F911DA11D6A0F711D811D911D64
:102C7000A11D20D009F468943F912AE0269F1124D9
:102C80003019305D3193DEF6CF010895462F47703D
:102C9000405D4193B3E00FD0C9F7F6CF462F4F7098
:102CA000405D4A3318F0495D31FD4052419302D0F6
:102CB000A9F7EACFB4E0A69597958795779567959C
:102CC000BA95C9F700976105710508959B01AC019C
:102CD0000A2E06945795479537952795BA95C9F7C3
:102CE000620F731F841F951FA01D08952F923F929E
:102CF0004F925F926F927F928F929F92AF92BF920C
:102D0000CF92DF92EF92FF920F931F93CF93DF93B7
:102D1000CDB7DEB7CA1BDB0B0FB6F894DEBF0FBE14
:102D2000CDBF09942A88398848885F846E847D8461
:102D30008C849B84AA84B984C884DF80EE80FD8063
:102D40000C811B81AA81B981CE0FD11D0FB6F894D9
:0E2D5000DEBF0FBECDBFED010895F894FFCF9A
:102D5E00737065656368206D697373696E67004192
:102D6E006E756E7461206F72610073706565636855
:102D7E0000253032643A253032643A253032640010
:102D8E002E574156002F006D6F756E74696E672E4B
:102D9E002E2E00737065656368006D757369630030
:102DAE002020202020202020202020202020202015
:082DBE00002000A60300000044
:00000001FF
