:100000000C943E000C9453000C9453000C94530039
:100010000C9453000C9453000C9453000C94530014
:100020000C9453000C9453000C9453000C94530004
:100030000C9453000C9453000C9453000C945300F4
:100040000C9453000C9453000C9453000C945300E4
:100050000C9453000C9453000C9453000C945300D4
:100060000C9453000C9453000C9453000C945300C4
:100070000C9453000C9453000C94530011241FBE95
:10008000CFEFD8E0DEBFCDBF16E0A0E0B1E0EAE4FC
:10009000FFE102C005900D92A439B107D9F70E9483
:1000A00039010C94A30F0C9400008FEF81B984B92F
:1000B00080EF8AB91BB812B815B80895EF92FF9275
:1000C0000F931F93DF93CF93CDB7DEB728970FB66B
:1000D000F894DEBF0FBECDBF6D837E838F8398877C
:1000E000ED80FE800F81188515950795F794E794AC
:1000F0002FED39E547E35FE52E193F09400B510B22
:1001000029833A834B835C83E980FA800B811C81CD
:1001100020E030E040E05FE30E94430BA80197013C
:100120000E94430BA80197010E94430B9B01AC0165
:1001300060E070E080EC9FE30E94E50A9B01AC0167
:10014000C801B7010E94430B28960FB6F894DEBF92
:100150000FBECDBFCF91DF911F910F91FF90EF9018
:1001600008957595679508952F923F924F925F92EB
:100170006F927F928F929F92AF92BF92CF92DF92B7
:10018000EF92FF920F931F93DF93CF9300D000D095
:10019000CDB7DEB71B012C0129833A834B835C83E7
:1001A000A20191010E94430B3B014C0169817A81BC
:1001B0008B819C819B01AC010E94430B9B01AC0194
:1001C000C401B3010E94160B3B014C01C801B701E9
:1001D000A80197010E94430B9B01AC01C401B3012C
:1001E0000E94160B3B014C0175946794C201B1014A
:1001F000A60195010E94430B5B016C0169817A8124
:100200008B819C81298D3A8D4B8D5C8D0E94430B97
:100210009B01AC01C601B5010E94160B5B016C018C
:10022000C801B7012D8D3E8D4F8D58A10E94430B03
:100230009B01AC01C601B5010E94160BA4019301FC
:100240000E943D0C0F900F900F900F90CF91DF9177
:100250001F910F91FF90EF90DF90CF90BF90AF90E4
:100260009F908F907F906F905F904F903F902F90D6
:1002700008952F923F924F925F926F927F928F924A
:100280009F92AF92BF92CF92DF92EF92FF920F9325
:100290001F93DF93CF93CDB7DEB76B970FB6F8946C
:1002A000DEBF0FBECDBF0E94DC088E01035F1F4F73
:1002B000C8010E9448058823B9F4099A549A119AF2
:1002C0001BB820E931E05C9A88E893E1F9013197A5
:1002D000F1F70197D9F75C9888E893E1F901319734
:1002E000F1F70197D9F7EFCFC80160E070E00E9405
:1002F000DC06C80162E070E00E94C30880E090E084
:10030000A0E0B0E089839A83AB83BC838D839E8316
:10031000AF83B88789879A87AB87BC870E945500CF
:10032000C8010A8F9B8FB1E02B2E312C8A8D9B8DBB
:10033000BE016F5F7F4FAE014B5F5F4F9E01275F36
:100340003F4F0E949A0589859A85AB85BC854C01F3
:100350005D01B7FAB094B7F8B09489869A86AB86F7
:10036000BC8689819A81AB81BC818A8B9B8BAC8B4B
:10037000BD8B4D805E806F807884BC01CD019B0178
:10038000AC010E94430B7B018C01C301B201A301AC
:1003900092010E94430B9B01AC01C801B7010E946E
:1003A000160B7B018C01C501B401A50194010E94CB
:1003B000430B9B01AC01C801B7010E94160B6E8B69
:1003C0007F8B888F998FA0E0CA2EA1E0DA2E6A89F0
:1003D0007B898C899D89D6012D913D914D915C91B0
:1003E0000E94430B7B018C01C301B201F601248101
:1003F0003581468157810E94430B9B01AC01C801A6
:10040000B7010E94160B7B018C01C501B401D60116
:1004100018962D913D914D915C911B970E94430B35
:100420009B01AC01C801B7010E94160BEE89FF8940
:10043000A88DB98D9F01AD01359527950E943D0C82
:10044000F601648775878687978782E190E0C80EFA
:10045000D91E90E8C91695E0D90609F0B8CFE4E0B6
:100460008E2E912CCC24DD24482CC101082C02C0F6
:10047000880F991F0A94E2F7582EC601880F991F1A
:100480008C0163E0000F111F6A95E1F7080F191F37
:10049000045F1E4FAA24BB2450E1652E712C6C0C06
:1004A0007D1C36C0D8016D917D918D919C9120E08D
:1004B00030E040E050E00E94E90C882324F5F80188
:1004C0008581841501F5FFE0EF22FF24D801149601
:1004D0009C91B8E0EB16F10454F482B1910102C092
:1004E000220F331F9A95E2F7822B82B909C085B19A
:1004F000910102C0220F331F9A95E2F7822B85B932
:100500008BB185298BB90894A11CB11C0E5E1F4FBD
:100510007501EC0CFD1CE614F70424F280E49CE960
:100520000197F1F712B815B81BB80894811C911CFB
:10053000E8E08E16910409F4F9CE630195CF0F938C
:100540001F93DF93CF93CDB7DEB72C970FB6F894F8
:10055000DEBF0FBECDBF8C019B0144E036952795D1
:100560004A95E1F788E0203038070CF0306FDE0163
:100570001196E0E8F5E08CE001900D928150E1F7F2
:10058000B901882777FD8095982F0E94190DD80111
:100590001196ED91FC911297EE0FFF1FEE0FFF1FCA
:1005A000EC0FFD1F21813281438154810E943D0C5B
:1005B0002C960FB6F894DEBF0FBECDBFCF91DF9162
:1005C0001F910F91089567FF05C06F3F11F461E01F
:1005D00001C062E0862F08950F931F93CF93DF939E
:1005E000162FEA01022F8AE30E943209812F0E940E
:1005F00079098BE30E94700904C00E9489098993DC
:1006000001500230D0F70E94910988830E9473093B
:10061000DF91CF911F910F91089540E050E021E0CC
:100620000E94EC028091000008952F923F924F9219
:100630005F926F927F928F929F92AF92BF92CF9272
:10064000DF92EF92FF920F931F93DF93CF9300D02F
:1006500000D0CDB7DEB71B015A8349832901380189
:100660008701DC82CB826501740162E20E940D0386
:10067000282F382F331F3327331F0115110549F059
:1006800090E0A6E096958795AA95E1F78170F8012C
:1006900080836114710451F0822F90E0F5E096950B
:1006A0008795FA95E1F78170F30180834114510435
:1006B00051F0822F90E0E4E096958795EA95E1F776
:1006C0008170F20180832114310461F0332311F42D
:1006D00080E006C0822F86958695869580958170EC
:1006E000F101808389819A81892B79F0332311F478
:1006F00080E008C0822F90E073E0969587957A9508
:10070000E1F78170E981FA818083E114F10449F015
:10071000822F90E096958795969587958170F70141
:100720008083C114D10439F0822F90E0969587958B
:100730008170F60180838B819C81892B39F0822F17
:1007400090E081709070EB81FC818083832F0F900B
:100750000F900F900F90CF91DF911F910F91FF900D
:10076000EF90DF90CF90BF90AF909F908F907F9051
:100770006F905F904F903F902F9008954F925F92AF
:100780006F927F928F929F92AF92BF92CF92DF92A1
:10079000EF92FF920F931F93CF93DF933B014A0198
:1007A000590128018701E6016EE10E940D03282FFF
:1007B00030E0C901E5E096958795EA95E1F781700B
:1007C000F5018083C90173E0969587957A95E1F7E5
:1007D0008170F4018083C901969587958170F3013A
:1007E0008083C114D10441F0C90154E096958795E6
:1007F0005A95E1F7817088830115110541F0C9010F
:1008000096958795969587958170F8018083411418
:10081000510429F0C90181709070F2018083B6E023
:1008200036952795BA95E1F7822F8170DF91CF91A8
:100830001F910F91FF90EF90DF90CF90BF90AF90FE
:100840009F908F907F906F905F904F9008956F92E0
:100850007F928F929F92AF92BF92CF92DF92EF9250
:10086000FF920F931F93CF93DF934B015A01E9013E
:100870003801860166E10E940D03282F209741F080
:1008800090E045E0969587954A95E1F781708883D9
:10089000A114B10451F0822F90E033E09695879532
:1008A0003A95E1F78170F50180838114910439F064
:1008B000822F90E0969587958170F40180830115D1
:1008C000110551F0822F90E0A4E096958795AA95A6
:1008D000E1F78170F8018083E114F10449F0822F7F
:1008E00090E096958795969587958170F70180831E
:1008F0006114710431F0822F90E081709070F301E7
:100900008083822F881F8827881FDF91CF911F91B6
:100910000F91FF90EF90DF90CF90BF90AF909F909E
:100920008F907F906F90089560E10E940D0390E09A
:1009300056E0969587955A95E1F781700895CF9284
:10094000DF92EF92FF920F931F93CF93DF93EB0110
:100950007A01690160E10E940D03982F188287FFD8
:1009600002C081E08883892F90E09C0176E0369573
:1009700027957A95E1F72170F70120839C01359541
:10098000279523703070F601318320838170907039
:10099000F8018083DF91CF911F910F91FF90EF902D
:1009A000DF90CF9008956EE00E940D03282F30E075
:1009B00023703070C90108958F929F92AF92BF92B9
:1009C000CF92DF92EF92FF920F931F93CF93DF931B
:1009D000EB015A0149016CE00E940D03282F20977A
:1009E00029F0188287FF02C081E08883A114B10436
:1009F00051F0822F90E0B5E096958795BA95E1F792
:100A00008170F50180838114910451F0822F90E070
:100A1000A4E096958795AA95E1F78170F40180830B
:100A20000115110551F0822F90E0F3E0969587951E
:100A3000FA95E1F78170F8018083E114F10449F03F
:100A4000822F90E096958795969587958170F7010E
:100A50008083C114D10431F0822F90E081709070B6
:100A6000F6018083DF91CF911F910F91FF90EF905E
:100A7000DF90CF90BF90AF909F908F9008956BE0E4
:100A80000E940D03282F30E023703070C9010895B3
:100A9000CF93DF93EC016DE00E940D038A3211F0D9
:100AA00080E004C01A82198281E08883DF91CF91AF
:100AB0000895CF92DF92EF92FF920F931F93DF93EF
:100AC000CF9300D000D000D0CDB7DEB78B017A0134
:100AD000690161E0AE014F5F5F4F26E00E94EC02CA
:100AE000998180E02A8130E0822B932BF801918359
:100AF00080839B8180E02C8130E0822B932BF70157
:100B0000918380839D8180E02E8130E0822B932B26
:100B1000F6019183808326960FB6F894DEBF0FBE50
:100B2000CDBFCF91DF911F910F91FF90EF90DF909C
:100B3000CF900895AF92BF92CF92DF92EF92FF9243
:100B40000F931F93DF93CF9300D000D000D0CDB789
:100B5000DEB78C017B016A015901BE016F5F7F4FD7
:100B6000AE014D5F5F4F9E012B5F3F4F0E945905C5
:100B700069817A81C8010E949F02F70160837183B5
:100B8000828393836B817C81C8010E949F02F6015E
:100B900060837183828393836D817E81C8010E940B
:100BA0009F02F501608371838283938326960FB63B
:100BB000F894DEBF0FBECDBFCF91DF911F910F9193
:100BC000FF90EF90DF90CF90BF90AF9008950F937C
:100BD0001F93062F6AE20E940D03182F1E7F8AE3DF
:100BE0000E9432098AE20E94790981E08027812BE4
:100BF0000E9479090E9473091F910F910895FC01C9
:100C0000862F608361E06827CF010E94E705089581
:100C1000EF92FF920F931F938C01F62EE42E61E06A
:100C20000E94E7058AE30E9432098F2D0E9479090C
:100C30008E2D0E9479090E947309C80160E00E940C
:100C4000E7051F910F91FF90EF9008950F931F9369
:100C5000CF93DF93EC01362F142F022F67FF05C0CF
:100C60006F3F11F431E001C032E017FF05C01F3FB4
:100C700011F411E001C012E007FF05C00F3F11F4AD
:100C800001E001C002E0CE016FE2432F0E9408069E
:100C9000CE0160E3412F0E940806CE0161E3402FA0
:100CA0000E940806DF91CF911F910F910895CF9276
:100CB000EF920F934295440F407E679566276795A4
:100CC000642B2295207F262B000F000F000F022B94
:100CD0000C29EE0CEE0CE02A6EE24E2D0E94080666
:100CE0000F91EF90CF900895462F4D7B6DE20E94BB
:100CF00008060895EF92FF920F931F937C01162F21
:100D0000042F6CE20E940D03110F102B482F4C7F13
:100D1000412BC7016CE20E9408061F910F91FF90C2
:100D2000EF900895FF920F931F938C01F62E6BE2C4
:100D30000E940D03482F4C7F4F29C8016BE20E948F
:100D400008061F910F91FF9008950F931F938C0138
:100D50006BE20E940D03482F4064C8016BE20E94C1
:100D600008061F910F9108951F93CF93DF93EC0115
:100D7000162F6AE20E940D03482F4D7F1111426029
:100D8000CE016AE20E940806DF91CF911F9108957B
:100D90001F93CF93DF93EC01162F6AE20E940D039D
:100DA000482F4B7F11114460CE016AE20E94080671
:100DB000DF91CF911F910895EF92FF920F931F93B0
:100DC0008C017B016AE20E940D03482F477C83E07F
:100DD000EE0CFF1C8A95E1F74E29C8016AE20E94D9
:100DE00008061F910F91FF90EF900895CF92DF9228
:100DF000EF92FF920F931F936C01162FE42EF22EA9
:100E00006CE20E940D0390E0E294EE0C30EEE322DF
:100E10001295110F110F107C1E29F29420EFF2226F
:100E2000F12A000F000F000F0F299C012170307074
:100E3000022B82709070082BC6016CE2402F0E943A
:100E400008061F910F91FF90EF90DF90CF900895CB
:100E5000CF92DF92EF92FF920F931F93CF93DF9386
:100E6000EC01F62EE42E69016BE20E940D03877EF1
:100E700063E0000F111F6A95E1F7802B8B7F4F2DE8
:100E8000440F440F482BCE016BE20E940806FF205E
:100E9000A9F0CE016AE20E940D03482F4F7356E07D
:100EA000CC0CDD1C5A95E1F74C29CE016AE20E9478
:100EB0000806CE0169E24E2D0E940806DF91CF910F
:100EC0001F910F91FF90EF90DF90CF900895462FE4
:100ED00066E20E94080608950F931F93CF93DF9355
:100EE000EC01362F142F022F67FD3FE717FD1FE798
:100EF00007FD0FE7CE0163E2432F0E940806CE01F3
:100F000064E2412F0E940806CE0165E2402F0E9454
:100F10000806DF91CF911F910F910895EF92FF92F4
:100F20000F931F93CF93DF93EC01162FF42EE22E35
:100F300061E20E940D03282F912F1B82112311F0D3
:100F400081E08B83822F8F7B011180648F7D92FDE6
:100F50008062482F477F91FD48604D7F90FD426041
:100F6000CE0161E20E940806CE0167E24F2D0E9489
:100F70000806CE0168E24E2D0E940806DF91CF914F
:100F80001F910F91FF90EF9008950F931F93CF93B0
:100F9000DF93EC01162F042F61E20E940D03282F2E
:100FA000912F1B82112311F081E08B83822F8F7B85
:100FB000011180648F7E92FD8061482F4B7F91FDEF
:100FC00044604E7F90FD4160CE0161E20E940806C0
:100FD0008C81882329F4CE0167E244E00E94080650
:100FE000DF91CF911F910F9108951F93CF93DF93BE
:100FF000EC01142F67FD6FE7279522272795262BF5
:10100000CE016FE1422F0E940806CE0160E2412F1F
:101010000E940806DF91CF911F910895E62FF0E01E
:101020004295407F422B9F01220F331F2870307062
:10103000422B9F01220F331F24703070422BE1702E
:10104000EE0FE42B6DE14E2F0E94080608951F93CA
:10105000CF93DF93EC01142F67FD6FE727952227CD
:101060002795262BCE0167E1422F0E940806CE016C
:1010700068E1412F0E940806DF91CF911F910895EA
:1010800050E0279522272795E6E0660F771FEA951F
:10109000E1F7262BBA0133E0660F771F3A95E1F7A7
:1010A00060727070262BBA01B3E0660F771FBA9595
:1010B000E1F760717070262B4170440F440F440FAC
:1010C000422B65E10E9408060895FF920F931F933B
:1010D000CF93DF93EC01062FF42E122F61E10E94D3
:1010E0000D03482F4F77111140684F7B0111406469
:1010F000CE0161E10E940806CE0162E14F2D0E94FF
:101100000806DF91CF911F910F91FF9008950F93E3
:101110001F93CF93DF93EC01062F142F61E10E9400
:101120000D03482F4F77111140684F7B0111406428
:10113000CE0161E10E940806DF91CF911F910F91CE
:1011400008950F931F93CF93DF93EC01162F042F75
:101150006EE00E940D03482F4F7E11114061CE01B9
:101160006EE00E940806CE016FE00E940D03482F3A
:101170004C7F402BCE016FE00E940806DF91CF919B
:101180001F910F910895EF92FF920F931F938C017F
:10119000F62EE72E6EE00E940D03482F4C7F4F295C
:1011A000C8016EE00E940806F801F182E2821F91F8
:1011B0000F91FF90EF9008951092B90088E180930D
:1011C000B800089524E630E095E08091BC0087FDEA
:1011D00009C02115310531F0892F8A95F1F7215089
:1011E0003040F3CF80E0232B09F081E0089524E61E
:1011F00030E095E08091BC0084FF09C021153105E5
:1012000031F0892F8A95F1F721503040F3CF80E0FB
:10121000232B09F081E008951F93182F84EA80930F
:10122000BC000E94E2088823D1F08091B900887F39
:10123000883011F0803189F41093BB0084E88093EA
:10124000BC000E94E208882351F09091B900987F79
:10125000983129F080E0903419F081E001C080E0FD
:101260001F910895EF92FF920F931F93CF93DF93F7
:10127000182FC0EDD7E094EAE92E84E8F82E04E9AF
:10128000E092BC000E94E208882311F18091B9002D
:10129000887F883011F0803199F71093BB00F0926D
:1012A000BC000E94E208882399F08091B900887FF1
:1012B000803211F0883551F40093BC000E94F70889
:1012C0008823F1F2209721F02197DACF81E001C045
:1012D00080E0DF91CF911F910F91FF90EF900895E3
:1012E0000E940C09089584E98093BC000E94F708CD
:1012F00008958093BB0084E88093BC000E94E208BC
:101300008091B90090E0887F883209F091E0892FC0
:10131000089584EC8093BC000E94E2088091BB0099
:10132000089584E88093BC000E94E2088091BB008D
:101330000895A0E0B0E0EFE9F9E00C946C0FDC0157
:101340002B01FA019C91923008F439C1EB0188819C
:10135000823008F433C1943069F4843009F02FC12D
:1013600011969C9111978981981709F428C1ACE8CE
:10137000B5E025C1843009F421C18230A9F492304E
:1013800009F01DC19A01AD0188E0EA010990AE01A2
:10139000E90109929E018150C1F7E201898111960C
:1013A0009C918923818308C1923009F407C1129668
:1013B0002D903C901397EB018A819B811496AD9000
:1013C000BD90CD90DC901797EC80FD800E811F8141
:1013D0009101281B390BB90137FF04C06627772715
:1013E000621B730B603271050CF061C0121613069C
:1013F0006CF537014801062E04C0969487947794C3
:1014000067940A94D2F721E030E040E050E004C055
:10141000220F331F441F551F6A95D2F721503040C9
:10142000404050402E213F214023512321153105BA
:101430004105510521F021E030E040E050E0790124
:101440008A01E628F728082919293CC0232BD1F165
:10145000260E371E35014601062E04C09694879449
:10146000779467940A94D2F721E030E040E050E0AE
:1014700004C0220F331F441F551F6A95D2F7215015
:101480003040404050402A213B214C215D21211514
:1014900031054105510521F021E030E040E050E008
:1014A00059016A01A628B728C828D9280BC0821577
:1014B00093052CF01C01AA24BB24650103C0EE2473
:1014C000FF24870111969C91D20111968C91981757
:1014D00009F445C0992339F0A80197012A193B095D
:1014E0004C095D0906C0A60195012E193F09400B64
:1014F000510B57FD08C01182338222822483358329
:10150000468357831DC081E08183338222828827EE
:101510009927DC01821B930BA40BB50B8483958365
:10152000A683B7830DC0220F331F441F551F24838A
:101530003583468357838281938101979383828386
:101540002481358146815781DA01C9010197A109BA
:10155000B1098F5F9F4FAF4FBF4328F30BC09183FB
:1015600033822282EA0CFB1C0C1D1D1DE482F582D5
:101570000683178383E080832481358146815781E8
:1015800057FF1AC0C901AA2797FDA095BA2F8170ED
:101590009070A070B0705695479537952795822B1F
:1015A000932BA42BB52B84839583A683B783828149
:1015B0009381019693838283DF0101C0D201CD0123
:1015C000CDB7DEB7E2E10C94880FA0E2B0E0EBEE1D
:1015D000FAE00C94780F69837A838B839C832D8344
:1015E0003E834F835887E9E0EE2EF12CEC0EFD1E72
:1015F000CE010196B7010E949B0E8E010F5E1F4F18
:10160000CE010596B8010E949B0E8A8991E0892738
:101610008A8BC701B801AE01475E5F4F0E949909EE
:101620000E94C60DA096E6E00C94940FA0E2B0E0F4
:10163000ECE1FBE00C94780F69837A838B839C83C5
:101640002D833E834F835887F9E0EF2EF12CEC0E6B
:10165000FD1ECE010196B7010E949B0E8E010F5E0A
:101660001F4FCE010596B8010E949B0EC701B8011D
:10167000AE01475E5F4F0E9499090E94C60DA09679
:10168000E6E00C94940FA0E2B0E0E9E4FBE00C94F7
:101690006C0F69837A838B839C832D833E834F8376
:1016A0005887CE010196BE01675F7F4F0E949B0E57
:1016B000CE010596BE016F5E7F4F0E949B0E9985FD
:1016C000923088F089898230C8F0943019F48230E1
:1016D00051F404C0843029F4923081F48CE895E010
:1016E000C6C0923049F420E09A858A89981321E097
:1016F0002A87CE010996BBC0823049F420E09A8542
:101700008A89981321E02A8BCE014196B0C02D849E
:101710003E844F8458886D887E888F88988CEE240C
:10172000FF248701AA24BB24650140E050E060E06B
:1017300070E0E0E0F0E0C10181709070892BE9F089
:10174000E60CF71C081D191D9A01AB012A0D3B1D63
:101750004C1D5D1D80E090E0A0E0B0E0E614F704D1
:101760000805190520F481E090E0A0E0B0E0BA019E
:10177000A901480F591F6A1F7B1FAA0CBB1CCC1C58
:10178000DD1C97FE08C081E090E0A0E0B0E0A82A50
:10179000B92ACA2ADB2A3196E032F10549F0660CF3
:1017A000771C881C991C5694479437942794C3CF70
:1017B000FA85EA892B893C898B859C85280F391FFE
:1017C0002E5F3F4F17C0CA0181709070892B61F066
:1017D00016950795F794E79480E090E0A0E0B0E8D4
:1017E000E82AF92A0A2B1B2B76956795579547957A
:1017F0002F5F3F4F77FDE7CF0CC0440F551F661F8B
:10180000771F17FD4160EE0CFF1C001F111F2150B8
:101810003040403090E0590790E0690790E4790744
:1018200060F32B8F3C8FDB01CA018F779070A07023
:10183000B07080349105A105B10561F447FD0AC07F
:10184000E114F1040105110529F0405C5F4F6F4F71
:101850007F4F40781A8EFE1711F081E08A8F4D8FEE
:101860005E8F6F8F78A383E0898FCE0149960E94A7
:10187000C60DA096E2E10C94880FA8E1B0E0E3E485
:10188000FCE00C94740F69837A838B839C832D8393
:101890003E834F835887B9E0EB2EF12CEC0EFD1EF2
:1018A000CE010196B7010E949B0E8E010F5E1F4F65
:1018B000CE010596B8010E949B0E2985223008F4BE
:1018C0007EC03989323010F4B8017CC08A859A898B
:1018D00089278A87243011F0223031F4231709F048
:1018E0006EC06CE875E06EC0343039F41D861E861B
:1018F0001F86188A1C861B8604C0323021F484E0BF
:101900008987B7015FC02B853C858B899C89281B03
:10191000390B3C872B87ED84FE840F851889AD88B1
:10192000BE88CF88D88CEA14FB040C051D0540F452
:10193000EE0CFF1C001F111F215030403C872B87ED
:1019400020E030E040E050E080E090E0A0E0B0E453
:1019500060E070E0EA14FB040C051D0540F0282B44
:10196000392B4A2B5B2BEA18FB080C091D09B6958D
:10197000A79597958795EE0CFF1C001F111F6F5FB1
:101980007F4F6F31710531F7DA01C9018F779070A0
:10199000A070B07080349105A105B10561F427FDF8
:1019A0000AC0E114F1040105110529F0205C3F4F44
:1019B0004F4F5F4F20782D873E874F87588BBE0152
:1019C000675F7F4FCB010E94C60D6896EAE00C94DA
:1019D000900FA8E1B0E0EFEEFCE00C94780F698383
:1019E0007A838B839C832D833E834F83588789E042
:1019F000E82EF12CEC0EFD1ECE010196B7010E94DF
:101A00009B0E8E010F5E1F4FCE010596B8010E94FE
:101A10009B0E8985823040F08989823028F0C70189
:101A2000B8010E94130F01C081E06896E6E00C94B3
:101A3000940FA8E0B0E0EFE1FDE00C94750F9B017E
:101A4000AC0183E08983DA01C9018827B7FD83955A
:101A50009927AA27BB27B82E211531054105510525
:101A600019F482E089833AC08823A9F0203080E00D
:101A7000380780E0480780E8580729F460E070E004
:101A800080E09FEC30C0EE24FF248701E21AF30AC5
:101A9000040B150B02C079018A018EE1C82ED12CEE
:101AA000DC82CB82ED82FE820F831887C801B701EA
:101AB0000E94770D01971816190684F4082E04C0A9
:101AC000EE0CFF1C001F111F0A94D2F7ED82FE825C
:101AD0000F831887C81AD90ADC82CB82BA82CE015A
:101AE00001960E94C60D2896E9E00C94910FEF92A2
:101AF000FF920F931F937B018C0180E0E81680E03A
:101B0000F80681E0080780E0180788F48FEFE816F0
:101B1000F1040105110531F028F088E090E0A0E023
:101B2000B0E017C080E090E0A0E0B0E012C080E03C
:101B3000E81680E0F80680E0080781E0180728F042
:101B400088E190E0A0E0B0E004C080E190E0A0E097
:101B5000B0E020E230E040E050E0281B390B4A0BB7
:101B60005B0B04C016950795F794E7948A95D2F716
:101B7000F701EC56FA4F8081281B310941095109C0
:101B8000C9011F910F91FF90EF900895DF92EF929E
:101B9000FF920F931F93FC01E480F580068117816B
:101BA000D1808081823048F480E090E0A0E1B0E014
:101BB000E82AF92A0A2B1B2BA5C0843009F49FC000
:101BC000823021F4EE24FF24870105C0E114F104E2
:101BD0000105110519F4E0E0F0E096C0628173811F
:101BE0009FEF623879070CF05BC022E83FEF261BBD
:101BF000370B2A3131052CF020E030E040E050E096
:101C00002AC0B801A701022E04C0769567955795A2
:101C100047950A94D2F781E090E0A0E0B0E004C0DC
:101C2000880F991FAA1FBB1F2A95D2F70197A109F8
:101C3000B1098E219F21A023B1230097A105B105F1
:101C400021F081E090E0A0E0B0E09A01AB01282B08
:101C5000392B4A2B5B2BDA01C9018F779070A0706A
:101C6000B07080349105A105B10539F427FF09C092
:101C7000205C3F4F4F4F5F4F04C0215C3F4F4F4FA1
:101C80005F4FE0E0F0E02030A0E03A07A0E04A0734
:101C9000A0E45A0710F0E1E0F0E079018A0127C0E2
:101CA0006038710564F5FB01E158FF4FD801C701A9
:101CB0008F779070A070B07080349105A105B10548
:101CC00039F4E7FE0DC080E490E0A0E0B0E004C08D
:101CD0008FE390E0A0E0B0E0E80EF91E0A1F1B1FA2
:101CE00017FF05C016950795F794E794319687E09E
:101CF00016950795F794E7948A95D1F705C0EE24D9
:101D0000FF248701EFEFF0E06E2F67956627679558
:101D1000902F9F77D794DD24D7948E2F8695492FC7
:101D2000462B582F5D29B701CA011F910F91FF90D3
:101D3000EF90DF900895FC01DB0140815181228109
:101D4000622F6F7770E0221F2227221F9381892F35
:101D5000880F822B282F30E0991F9927991F119601
:101D60009C93119721153105A9F541155105610580
:101D7000710511F482E037C082E89FEF13969C93BF
:101D80008E9312979A01AB0167E0220F331F441F15
:101D9000551F6A95D1F783E08C930DC0220F331F36
:101DA000441F551F12968D919C911397019713967E
:101DB0009C938E931297203080E0380780E048078C
:101DC00080E4580758F314962D933D934D935C93FC
:101DD000179708952F3F310579F441155105610595
:101DE000710519F484E08C93089564FF03C081E0C9
:101DF0008C9312C01C9210C02F57304013963C9306
:101E00002E93129783E08C9387E0440F551F661F33
:101E1000771F8A95D1F7706414964D935D936D93F7
:101E20007C93179708951F93DC01FB019C919230DE
:101E300008F447C08081823008F443C0943051F4E4
:101E400011961C91843099F58181682F70E0611B97
:101E500071093FC0843021F0923031F48230B9F101
:101E60008181882389F12DC011961C9111978230B0
:101E7000F1F081811817D9F412962D913C911397A6
:101E8000828193818217930794F028173907BCF059
:101E900014968D919D910D90BC91A02D248135813A
:101EA00046815781281739074A075B0718F4112321
:101EB00041F00AC082179307A407B50740F4112325
:101EC00019F061E070E005C06FEF7FEF02C060E0E5
:101ED00070E0CB011F9108952F923F924F925F9235
:101EE0006F927F928F929F92AF92BF92CF92DF922A
:101EF000EF92FF920F931F93CF93DF93CDB7DEB78F
:101F0000CA1BDB0B0FB6F894DEBF0FBECDBF099422
:101F10002A88398848885F846E847D848C849B8479
:101F2000AA84B984C884DF80EE80FD800C811B8187
:101F3000AA81B981CE0FD11D0FB6F894DEBF0FBEB6
:0A1F4000CDBFED010895F894FFCF26
:101F4A00000000C000000040000000400000000047
:101F5A000004000080BF00000040000000400000B4
:101F6A00000001040000803F000000400000004023
:101F7A0000000000020400000040000000400000D1
:101F8A000040000000000304000000C00000803F81
:101F9A0000000040000000000404000080BF0000B0
:101FAA00803F000000400000000005040000803F60
:101FBA000000803F0000004000000000060400000E
:101FCA0000400000803F00000040000000000704BD
:101FDA00000000C0000080BF0000004000000000B8
:101FEA000004000080BF000080BF00000040000025
:101FFA00000001040000803F000080BF0000004094
:10200A0000000000020400000040000080BF000041
:10201A000040000000000304000000C0000000C0EF
:10202A0000000040000000000404000080BF00001F
:10203A0000C0000000400000000005040000803FCE
:10204A00000000C00000004000000000060400007C
:10205A000040000000C0000000400000000007042B
:10206A00000000C0000000400000803F00000000A7
:10207A000005000080BF000000400000803F000013
:10208A00000001050000803F000000400000803F82
:10209A0000000000020500000040000000400000AF
:1020AA00803F000000000305000000C00000803FE0
:1020BA000000803F000000000405000080BF00000F
:1020CA00803F0000803F0000000005050000803FBF
:1020DA000000803F0000803F00000000060500006D
:1020EA0000400000803F0000803F0000000007051C
:1020FA00000000C0000080BF0000803F0000000018
:10210A000005000080BF000080BF0000803F000083
:10211A00000001050000803F000080BF0000803FF2
:10212A0000000000020500000040000080BF00001F
:10213A00803F000000000305000000C0000000C04E
:10214A000000803F000000000405000080BF00007E
:10215A0000C00000803F0000000005050000803F2D
:10216A00000000C00000803F0000000006050000DB
:10217A000040000000C00000803F0000000007058A
:10218A00000000C000000040000080BF0000000006
:10219A000006000080BF00000040000080BF000071
:1021AA00000001060000803F00000040000080BFE0
:1021BA00000000000206000000400000004000008D
:1021CA0080BF000000000306000000C00000803F3E
:1021DA00000080BF000000000406000080BF00006D
:1021EA00803F000080BF0000000005060000803F1D
:1021FA000000803F000080BF0000000006060000CB
:10220A0000400000803F000080BF00000000070679
:10221A00000000C0000080BF000080BF0000000076
:10222A000006000080BF000080BF000080BF0000E1
:10223A00000001060000803F000080BF000080BF50
:10224A0000000000020600000040000080BF0000FD
:10225A0080BF000000000306000000C0000000C0AC
:10226A00000080BF000000000406000080BF0000DC
:10227A0000C0000080BF0000000005060000803F8B
:10228A00000000C0000080BF000000000606000039
:10229A000040000000C0000080BF000000000706E8
:1022AA00000000C000000040000000C00000000064
:1022BA000007000080BF00000040000000C00000CE
:1022CA00000001070000803F00000040000000C03D
:1022DA00000000000207000000400000004000006B
:1022EA0000C0000000000307000000C00000803F9B
:1022FA00000000C0000000000407000080BF0000CA
:10230A00803F000000C00000000005070000803F79
:10231A000000803F000000C0000000000607000027
:10232A0000400000803F000000C0000000000707D6
:10233A00000000C0000080BF000000C000000000D4
:10234A000007000080BF000080BF000000C000003E
:10235A00000001070000803F000080BF000000C0AD
:10236A0000000000020700000040000080BF0000DB
:10237A0000C0000000000307000000C0000000C009
:10238A00000000C0000000000407000080BF000039
:10239A0000C0000000C00000000005070000803FE8
:1023AA00000000C0000000C0000000000607000096
:1023BA000040000000C0000000C000000000070745
:1023CA000000804400000044000080430000000038
:1023DA0000000000000102020303030304040404D2
:1023EA000404040405050505050505050505050597
:1023FA000505050506060606060606060606060677
:10240A000606060606060606060606060606060662
:10241A000606060607070707070707070707070746
:10242A000707070707070707070707070707070732
:10243A000707070707070707070707070707070722
:10244A000707070707070707070707070707070712
:10245A0007070707080808080808080808080808F6
:10246A0008080808080808080808080808080808E2
:10247A0008080808080808080808080808080808D2
:10248A0008080808080808080808080808080808C2
:10249A0008080808080808080808080808080808B2
:1024AA0008080808080808080808080808080808A2
:1024BA000808080808080808080808080808080892
:1024CA000808080808080808080808080808080882
:0424DA0008080808DE
:00000001FF
